:020000040800F2
:1000000038550020DD010008E501000895100008C2
:10001000E901000899100008ED0100080000000047
:100020000000000000000000000000004501000882
:100030009D1000080000000089010008D912000886
:10004000D5490008F7010008F7010008F70100088A
:10005000F7010008F7010008F7010008F7010008A0
:10006000F7010008F7010008F7010008F701000890
:10007000F7010008F7010008F7010008F701000880
:10008000F7010008F7010008F7010008F701000870
:10009000F7010008F7010008F7010008F701000860
:1000A000F7010008F7010008F7010008F701000850
:1000B000F7010008F7010008F7010008F701000840
:1000C000F7010008F7010008F7010008F701000830
:1000D000F7010008EB480008F7010008F74800089E
:1000E000F7010008F7010008F7010008F701000810
:1000F000F7010008F7010008F7010008F701000800
:10010000F7010008F7010008F7010008F7010008EF
:10011000F7010008F7010008F7010008F7010008DF
:10012000F7010008F7010008F7010008F7010008CF
:10013000DFF80CD004F0B6FE004800478D10000830
:1001400038550020224B19680868B0E8F00F80F39A
:100150000988BFF36F8F4FF0000080F311884EF0D5
:100160000D0E70470000000006480068006880F32C
:10017000088862B661B6BFF34F8FBFF36F8F00DFA1
:1001800000BF00BF08ED00E0EFF30980BFF36F8F01
:100190000F4B1A6820E9F00F106008B54FF01F00F0
:1001A00080F31188BFF34F8FBFF36F8F01F069FDAC
:1001B0004FF0000080F31188BDE808401968086816
:1001C000B0E8F00F80F30988BFF36F8F704700BF6E
:1001D00034000020EFF30580704700000648804798
:1001E00006480047FEE7FEE7FEE7FEE7FEE7FEE71C
:1001F000FEE7FEE7FEE7FEE7DF0200083101000848
:100200000CB50020019000906C48006840F48030EC
:100210006A49086000BF6948006800F40030009037
:100220000198401C0190009818B90198B0F5A06F92
:10023000F1D16248006800F4003010B10120009054
:1002400001E0002000900098012843D15C4800683C
:1002500040F010005A4908600846006820F003008A
:1002600008600846006840F0020008605348406893
:10027000524948600846406848600846406840F473
:10028000806048600846406820F47C10486008465A
:10029000406840F4E81048600846006840F080700C
:1002A000086000BF4548006800F000700028F9D0E1
:1002B0004248406820F003004049486008464068D2
:1002C00040F00200486000BF3C48406800F00C006D
:1002D0000828F9D10CBD10B5FFF792FF10BD10B57D
:1002E0003648006840F0010034490860084640681C
:1002F000344908403149486008460068324908409E
:100300002E4908600846006820F4802008600846EE
:10031000406820F4FE0048604FF41F008860FFF73B
:10032000DAFF4FF000602949086010BD10B50021C8
:1003300000200022214B5B6803F00C0121B104294D
:1003400006D0082928D107E0214B224C236027E062
:100350001F4B204C236023E0184B5B6803F47010A4
:10036000164B5B6803F48032022303EB904022B902
:10037000194B4343174C23600DE0104B5B6803F4AB
:10038000003323B1144B4343124C236003E0104B62
:100390004343104C236003E00D4B0E4C236000BF21
:1003A00000BF064B5B68C3F303130C4CE15C094BC5
:1003B0001B68CB40074C236010BD000000100240BA
:1003C000002002400000FFF8FFFFF6FE08ED00E00D
:1003D00000127A000000002000093D000400002007
:1003E00031490143314A1160704770B50021002343
:1003F0000F22C47804B32D4C246804F4E064C4F5DF
:10040000E064210AC1F10403CA40447804FA03F10C
:100410008478144021430901254C0678A1550478BD
:1004200004F01F050124AC4005786D11AD0005F105
:10043000E025C5F8004109E0047804F01F05012417
:10044000AC401C4D0678761145F8264070BD1A4A1E
:100450000A400243154B1B1F1A60704739B1134AFB
:10046000121D12680243114B1B1D1A6006E00F4A51
:10047000121D126882430D4B1B1D1A607047042821
:1004800008D14FF0E021096941F004014FF0E0226A
:10049000116107E04FF0E021096921F004014FF0FC
:1004A000E0221161704700000000FA050CED00E049
:1004B00000E400E080E100E080FFFF1F10B504468B
:1004C000CC48844208D10121042000F04DFB0021DA
:1004D000042000F049FB46E0C748844208D10121CE
:1004E000082000F041FB0021082000F03DFB3AE02D
:1004F000C248844208D10121102000F035FB0021C0
:10050000102000F031FB2EE0BD48844208D10121CB
:10051000202000F029FB0021202000F025FB22E014
:10052000B848844208D10121402000F01DFB002181
:10053000402000F019FB16E0B348844208D10121A5
:10054000802000F011FB0021802000F00DFB0AE06C
:10055000AE48844207D10121801500F005FB00213F
:10056000A01500F001FB10BD10B50121084600F0F8
:10057000FBFA0021012000F0F7FA10BD2DE9F0414F
:10058000024600250026002000230024002791F8C1
:1005900003C00CF00F0591F803C00CF0100CBCF177
:1005A000000F03D091F802C04CEA050591F800C095
:1005B000BCF1000F31D0146800202BE04FF0010C8B
:1005C0000CFA00F3B1F800C00CEA03069E4220D1F9
:1005D00083004FF00F0C0CFA03F7BC4305FA03FC41
:1005E0004CEA040491F803C0BCF1280F06D14FF087
:1005F000010C0CFA00FCC2F814C00AE091F803C028
:10060000BCF1480F05D14FF0010C0CFA00FCC2F808
:1006100010C0401C0828D1D31460B1F800C0BCF150
:10062000FF0F34DD546800202EE000F1080C4FF07D
:10063000010808FA0CF3B1F800C00CEA03069E4268
:1006400021D183004FF00F0C0CFA03F7BC4305FADD
:1006500003FC4CEA040491F803C0BCF1280F05D157
:1006600000F1080C08FA0CF8C2F8148091F803C0E5
:10067000BCF1480F07D100F1080C4FF0010808FA4F
:100680000CF8C2F81080401C0828CED35460BDE896
:10069000F0814FF6FF710180022181700421C17049
:1006A00070470246002093680B400BB1012000E028
:1006B000002070470146886880B2704702460020DB
:1006C000D3680B400BB1012000E0002070470146C9
:1006D000C86880B2704701617047416170470AB1D4
:1006E000016100E041617047C16070474FF48032A2
:1006F0000A43826181618261826982697047024630
:100700000020434B18684FF68073184040EA0210EF
:1007100008433F4B186070473E49C8617047F0B5C9
:100720000A46002300240021002500F00046B6F10F
:10073000004F02D1364EF16901E0354E7168C0F3C9
:10074000034583B200F44016B6F5401F08D121F0EE
:1007500070612F4E766826F070662D4F7E6012E035
:1007600000F48016B6F5801F06D1032606FA05F4BC
:10077000A14341F0706106E0460D360103FA06F62A
:10078000B14341F0706122B1460D360103FA06F61D
:10079000314300F00046B6F1004F02D11C4EF1612A
:1007A00001E01B4E7160F0BD30B500228B071C0FBD
:1007B0000F2303FA04F2164B08338C1053F824303D
:1007C0009343134C08348D1044F8253023468C1085
:1007D00053F824308C07240F00FA04F423430C4C04
:1007E00008348D1044F8253030BD0A49DC310860EA
:1007F0007047000000080140000C0140001001405B
:100800000014014000180140001C0140002001407C
:1008100000000140000020420E49086070470D4969
:10082000486070470B49886070474AF6AA2009491A
:10083000086070474CF6CC40064908607047014696
:100840000020044AD2680A400AB1012000E00020DA
:100850007047000000300040DF48006840F00100B1
:10086000DD49086008464068DC490840DA494860CC
:1008700008460068DA490840D74908600846006819
:1008800020F4802008600846406820F4FE0048609C
:100890004FF41F0088607047CF49096821F4803108
:1008A000CD4A11601146096821F480211160B0F52C
:1008B000803F03D0B0F5802F0ED106E0C64909680D
:1008C00041F48031C44A116007E0C349096841F42A
:1008D000A021C14A116000E000BF00BF704710B501
:1008E00001460022002300204A11012A02D1BA4CFD
:1008F000236806E0022A02D1B74C236A01E0B64C15
:10090000636A01F01F02012494401C400CB10120D5
:1009100000E0002010BD38B5002000900024002524
:1009200000BF3120FFF7DBFF05460098401C009018
:100930000098B0F5A06F01D0002DF2D03120FFF764
:10094000CEFF08B1012400E00024204638BD014656
:100950000020A14A106820F0F80040EAC1001060B1
:100960007047A04908607047024600209A4B5868BB
:1009700020F47C1042EA01031843974B58607047FB
:1009800098490866704701460020934A506820F055
:1009900003000843506070478F48406800F00C0027
:1009A0007047014600208C4A506820F0F000084350
:1009B0005060704701460020874A506820F4E0608C
:1009C00008435060704701460020834A506820F475
:1009D000605040EAC1005060704729B17E4A527AA7
:1009E00002437D4B5A7204E07B4A527A82437A4B2F
:1009F0005A7270477B49D831086070470146002021
:100A0000754A506820F44040084350607047002108
:100A1000714A20321170704A82F82010012802D0E9
:100A200004280AD104E001216B4A2032117005E04C
:100A30000521694A2032117000E000BF00BF7047F5
:100A40006949086070476449096A0143624A116252
:100A50007047654944390860704730B5002100226D
:100A6000002400235C4D6D6805F00C0121B10429C0
:100A700005D0082923D105E05C4D056022E05B4DDF
:100A800005601FE0544D6D6805F47012524D6D689D
:100A900005F48034022505EB92421CB9544D5543B0
:100AA00005600BE04C4D6D6805F400351DB1504DEF
:100AB0005543056002E04D4D5543056002E04B4D46
:100AC000056000BF00BF444D6D6805F0F0010909E5
:100AD000484D6B5C0568DD4045603F4D6D6805F431
:100AE000E061090A434D6B5C4568DD4085603A4D25
:100AF0006D6805F46051C90A3E4D6B5C4568DD4088
:100B0000C560354D6D6805F44041890B3A4D6B5C0D
:100B1000C568B5FBF3F5056130BD29B12E4A5269B0
:100B200002432D4B5A6104E02B4A526982432A4BFF
:100B30005A61704729B1284A92690243264B9A614B
:100B400004E0254A92698243234B9A61704729B198
:100B5000214AD2690243204BDA6104E01E4AD2697D
:100B600082431D4BDA61704729B11B4AD2680243A8
:100B7000194BDA6004E0184AD2688243164BDA60F7
:100B8000704729B1144A12690243134B1A6104E0F9
:100B9000114A12698243104B1A6170471249403959
:100BA000086070470F49C86470470B49C8717047A7
:100BB0000948406A40F08070074948627047014622
:100BC0000020054A92680A400AB1012000E0002096
:100BD0007047014988727047001002400000FFF81A
:100BE000FFFFF6FE000042428004424200127A00FB
:100BF00000093D00140000202400002010B5044628
:100C0000FB48844209D101218803FFF7ADFF002191
:100C10004FF48040FFF7A8FF32E0F648844209D144
:100C200001214804FFF7ADFF00214FF40030FFF72A
:100C3000A8FF25E0F048844209D101218804FFF78C
:100C4000A0FF00214FF48020FFF79BFF18E0EB4846
:100C5000844209D10121C804FFF793FF00214FF41A
:100C60000020FFF78EFF0BE0E548844208D1012108
:100C70000805FFF786FF00214FF48010FFF781FF82
:100C800010BD2DE9F04786B005460E460024A24669
:100C900000BFA1460027B08900B100BF2F462C8AB3
:100CA0004CF6FF700440F08804432C82AC894EF669
:100CB000F3100440B0883189084371890843044324
:100CC000AC81AC8A4FF6FF400440B0890443AC824B
:100CD00001A8FFF7C2FEC648874202D1DDF810A086
:100CE00001E0DDF80CA0A88900F4004040B10AEB57
:100CF000CA0000EB0A1031684900B0FBF1F807E0C8
:100D00000AEBCA0000EB0A1031688900B0FBF1F869
:100D10006420B8FBF0F004012009642101FB108974
:100D2000A88900F4004040B1322000EBC900B0FBBC
:100D3000F1F000F00700044308E0322000EB091056
:100D40006421B0FBF1F000F00F0004432C8106B0E9
:100D5000BDE8F0874FF41651016000218180C18009
:100D600001810C21418100218181704710B502462B
:100D70000020108A4FF2FF0318400B884C88234351
:100D80008C882343CC8823431843108210BD002154
:100D9000018041808180C180704721B1828942F405
:100DA0000052828104E082894DF6FF731A408281ED
:100DB0007047F0B50346002400260025002040F6C9
:100DC0006A17B94200D100BF1846C1F3421401F0BE
:100DD0001F06012707FA06F5012C01D10C3004E0AB
:100DE000022C01D1103000E014301AB107682F43F3
:100DF000076002E00768AF430760F0BD1AB1838A5D
:100E00000B43838202E0838A8B4383827047028A8A
:100E10004FF6F0731A400282028A0A430282704738
:100E200082894FF2FF731A40828182890A4382814C
:100E3000704721B1828942F00202828104E08289F6
:100E40004FF6FD731A4082817047028A4FF6DF73B6
:100E50001A400282028A0A430282704721B1028A42
:100E600042F48042028204E0028A4BF6FF731A4089
:100E700002827047C1F30802828070470146888869
:100E8000C0F308007047818941F0010181817047FA
:100E9000028BD2B20283028B42EA012202837047A4
:100EA000028B02F47F420283028B0A430283704763
:100EB00021B1828A42F02002828204E0828A4FF6C7
:100EC000DF731A408282704721B1828A42F0100299
:100ED000828204E0828A4FF6EF731A408282704762
:100EE00021B1828A42F00802828204E0828A4FF6AF
:100EF000F7731A408282704721B1828942F400421E
:100F0000828103E08289C2F30E028281704721B19F
:100F1000828A42F40062828204E0828A4FF2FF7386
:100F20001A4082827047828A4FF6FB731A4082828F
:100F3000828A0A438282704721B1828A42F0020289
:100F4000828204E0828A4FF6FD731A4082827047E3
:100F500002460020B1F5007F00D100BF13880B408E
:100F60000BB1012000E00020704701F40072B2F5DF
:100F7000007F00D100BFCA430280704770B50246AF
:100F8000002400230025002040F66A16B14200D15B
:100F900000BFC1F3421501F01F03012606FA03F357
:100FA000012D02D19689334006E0022D02D1168A26
:100FB000334001E0968A33400C12012606FA04F40D
:100FC0001688344013B10CB1012000E0002070BD40
:100FD00010B50022002340F66A14A14200D100BFE0
:100FE0000A1201249440A3B2DC43048010BD000027
:100FF000003801400044004000480040004C0040E0
:101000000050004010B50121C802FFF7BAFD0021D1
:101010004FF40060FFF7B5FD10BD0021194A1268BA
:1010200022F4C0710143174A1160704708B50021CE
:1010300000911449096821F07F01009100F07F01BF
:10104000009A114300910F4A0099116008BD0120D8
:101050000D490860704700F07F010A4A121F1160B5
:10106000704740F08001074A121F11607047054821
:10107000001D0068C0B2704700200249091D0860C9
:1010800070470000042C0040A480054203F0C0F922
:1010900000BFFEE700BFFEE700BFFEE7704700F1BC
:1010A000080141604FF0FF31816000F10801C1602B
:1010B00001610021016070470021016170474268B1
:1010C0004A6093688B609368596091600861036817
:1010D0005B1C0360704710B502460B685C1C0CB9C2
:1010E000106907E002F1080000E0406844682468E5
:1010F0009C42FAD944684C604C68A16088604160A9
:101100000A611468641C146010BD01460A69D1E9C3
:1011100001309860D1E9010358605068884201D1DC
:1011200088685060002008611068401E10601068D8
:10113000704700008F480068401C08B9012000E09B
:10114000002050B900BF1F2080F31188BFF34F8FDC
:10115000BFF36F8F00BF00BFFEE700BF1F2080F30B
:101160001188BFF34F8FBFF36F8F00BF00BFFEE743
:10117000001F4FF080730360001F21F00103036024
:10118000001F7D4B036014380260203870477B4895
:101190004FF0E02148610720086170471CB578488E
:1011A000014609780191FF21024611700146097834
:1011B00000919DF8001001F01F01724A1170072183
:1011C000714A116009E070490968491E6E4A116050
:1011D0009DF800104906090E00919DF8001001F0DD
:1011E00080018029EFD0684909680902664A1160C8
:1011F0001146098801F4E0611160614A019911709A
:101200006248006840F47F00604908600846006852
:1012100040F07F400860FFF7BAFF002055490860A2
:10122000FEF7A2FF00201CBD52480068B0F57A7F8F
:1012300001D1012000E0002050B900BF1F2080F341
:101240001188BFF34F8FBFF36F8F00BF00BFFEE762
:10125000704700BF1F2080F31188BFF34F8FBFF38B
:101260006F8F00BF43480068401C42490860084631
:101270000068012813D145481C380068C0B208B97D
:10128000012000E0002050B900BF1F2080F311882A
:10129000BFF34F8FBFF36F8F00BF00BFFEE77047F4
:1012A0003448006850B900BF1F2080F31188BFF395
:1012B0004F8FBFF36F8F00BF00BFFEE72D48006860
:1012C000401E2C4908600846006820B9002080F3C1
:1012D000118800BF00BF704710B500BF1F2080F30A
:1012E0001188BFF34F8FBFF36F8F00BF00F0CEF9AF
:1012F00020B14FF0805025491C39086000BF002004
:1013000080F3118800BF10BD70B5FEF763FF04467F
:10131000102C16D304F1E02090F8F053194800780F
:10132000854201DB012000E0002050B900BF1F20F2
:1013300080F31188BFF34F8FBFF36F8F00BF00BFE3
:10134000FEE712481438006800F4E0600E490968AE
:10135000884201D8012000E0002050B900BF1F20C2
:1013600080F31188BFF34F8FBFF36F8F00BF00BFB3
:10137000FEE770BD28000020351100083F1901006C
:1013800000E400E02C0000203000002020ED00E010
:1013900010B5002407E004EB8401FC4A02EB810055
:1013A000FFF77DFE641C0F2CF5D3F948FFF777FE9D
:1013B000F848FFF774FEF848FFF771FEF748FFF7AB
:1013C0006EFEF748FFF76BFEF148F6490860F148FA
:1013D000F549086010BD10B50446FFF73AFFF34821
:1013E0000068401CF1490860F148006840B9F048C5
:1013F00004600846006801280DD1FFF7C9FF0AE024
:10140000EC48006838B9EA480068C06AE16A884276
:1014100001D8E7480460E8480068401CE6490860D5
:1014200008460068606494F82C1001208840E34965
:1014300009680843E1490860E16A01EB8101D34A88
:1014400002EB8100211DFFF73AFEFFF729FFD94883
:10145000006868B1D6480068C06AE16A884207D26D
:101460004FF08050D6490860BFF34F8FBFF36F8FA6
:1014700010BD2DE9F05F82460F4690469B460A9EBE
:101480000C9C4FEA8801A522206B03F0F9FCA8F11F
:101490000100216B01EB800929F0070909F0070021
:1014A00008B9012000E0002050B900BF1F2080F3E0
:1014B0001188BFF34F8FBFF36F8F00BF00BFFEE7F0
:1014C000002507E0795D04F134004155785D00B9ED
:1014D00002E06D1C102DF5D300BF00214320015503
:1014E0000F2E00D30E26E662E66400202065201D44
:1014F000FFF7E2FD04F11800FFF7DEFD2461C6F1FD
:101500000F00A06164620020606584F858005A46AC
:1015100051464846FFF72CFE20600B9808B10B9807
:101520000460BDE8F09F2DE9FF4F85B080468946F5
:101530001746DDE912ABB80001F073FB064656B161
:101540005C2001F06EFB04460CB1266304E03046DB
:1015500001F0FBFB00E000247CB10020CDE900ABF2
:10156000CDE902403A4649464046089BFFF781FFD5
:101570002046FFF730FF012501E04FF0FF352846F8
:1015800009B0BDE8F08F87490968096809B90121E8
:1015900000E0002121B14FF0FF318A4A116006E0DE
:1015A00080490968C968C868864A416811607047FF
:1015B00010B50446206B01F0C8FB204601F0C5FBC6
:1015C00010BD70B50546FFF744FE15B978480068B0
:1015D00000E028460446201DFFF797FD78B9E06A31
:1015E00000EB8000694951F8200040B994F82C10B4
:1015F0000120884071490968814370480160A06AF0
:1016000018B104F11800FFF780FD6B480068401C1A
:101610006949086066480068844209D1211D5F4815
:10162000FFF74DFD68480068401C6749086009E005
:101630005E480068401E5D4908602046FFF7B8FF1D
:10164000FFF7A1FFFFF72CFE5A480068E8B15848A1
:101650000068844219D15D48006808B9012000E0A3
:10166000002050B900BF1F2080F31188BFF34F8FB7
:10167000BFF36F8F00BF00BFFEE74FF080505049AF
:101680000860BFF34F8FBFF36F8F70BD2DE9F0413E
:101690004FF000084D480068002876D14C4800689B
:1016A000451C4B48056015BB3E480068006808B9FA
:1016B000012000E0002050B900BF1F2080F31188F6
:1016C000BFF34F8FBFF36F8F00BF00BFFEE73548FA
:1016D00007683548006833490860334807603D486B
:1016E0000068401C3B490860FFF74DFF00BF3548CC
:1016F000006885423CD300BF2A480068006808B9EA
:10170000012000E0002020B14FF0FF302D4908609B
:101710002DE024480068C068C4686668B54202D2FB
:101720002848066023E0201DFFF7EFFCA06A18B1EF
:1017300004F11800FFF7E9FC94F82C100120884010
:101740001E49096808431D490860E16A01EB8101EF
:101750000E4A02EB8100211DFFF7B1FC1449E06A3B
:101760000968C96A8842C7D34FF00108C4E700BFBF
:101770000F480068C06A00EB8000044951F820005F
:10178000012801D94FF001082BE025E0D40000200A
:101790000002002014020020280200203C02002049
:1017A00050020020380000203C00002044000020AF
:1017B0003400002050000020600000204C00002079
:1017C00004ED00E064000020400000206C000020D8
:1017D000480000205C000020FE480068401CFD49D5
:1017E0000860FD48006808B14FF001084046BDE8B8
:1017F000F08170B500240026F848006850B900BF99
:101800001F2080F31188BFF34F8FBFF36F8F00BF8E
:1018100000BFFEE7FFF71DFDF0480068401EEF49DE
:1018200008600846006800284FD1ED48006800288D
:101830004BD024E0EB48C068C46804F11800FFF7FF
:1018400064FC201DFFF761FC94F82C1001208840F7
:10185000E54909680843E4490860E16A01EB810150
:10186000E24A02EB8100211DFFF729FCE049E06A12
:101870000968C96A884202D30120D7490860D9485B
:10188000006808B9012000E000200028D2D00CB187
:10189000FFF779FECF48056865B100BFFFF7F6FE98
:1018A00010B10120CC4908606D1E002DF6D100203A
:1018B000C8490860C848006838B101263007CD49DA
:1018C0000860BFF34F8FBFF36F8FFFF7E9FC30461F
:1018D00070BD2DE9F04105460E46C7480768C4486B
:1018E0000068001DFFF711FC50B9C148006890F86E
:1018F0002C1001208840BC4909688143BA48016026
:10190000681C38B936B1BA480168091DBB48FFF7F1
:10191000D6FB1AE07C19B64800684460BC4207D286
:10192000B3480168091DB6480068FFF7D4FB0CE016
:10193000AF480168091DB3480068FFF7CCFBB24807
:101940000068844201D2B0480460BDE8F081A34839
:101950000068401CA149086070472DE9F047044623
:101960000F464FF0000954B900BF1F2080F31188C3
:10197000BFF34F8FBFF36F8F00BF00BFFEE70FB104
:10198000012000E0002050B900BF1F2080F3118823
:10199000BFF34F8FBFF36F8F00BF00BFFEE78F48CD
:1019A000006808B9012000E0002050B900BF1F20E6
:1019B00080F31188BFF34F8FBFF36F8F00BF00BF5D
:1019C000FEE7FFF7C4FF8C4806682068C519206849
:1019D000B04207D92068A8420BD9B54209D94FF0C7
:1019E000010906E02068A84201D8B54201D94FF0AC
:1019F00001092560B9F1000F03D0A81B0021FFF7F2
:101A000068FFFFF7F6FE8046B8F1000F07D14FF0F0
:101A1000805078490860BFF34F8FBFF36F8FBDE8E8
:101A2000F08770B504460025D4B16C48006808B949
:101A3000012000E0002050B900BF1F2080F3118872
:101A4000BFF34F8FBFF36F8F00BF00BFFEE7FFF7FD
:101A50007EFF00212046FFF73CFFFFF7CAFE054648
:101A60003DB94FF0805063490860BFF34F8FBFF31B
:101A70006F8F70BD2DE9F04107463E4656B900BF55
:101A80001F2080F31188BFF34F8FBFF36F8F00BF0C
:101A900000BFFEE756480068864201D100241EE0E0
:101AA000FFF7D7FB7569FFF7FBFB564800688542D7
:101AB00003D053480068854201D102240FE04F480B
:101AC000854205D1B06A08B9032408E0022406E083
:101AD0004E48854200D00DB9042400E00124204680
:101AE000BDE8F08170B50446FFF7B3FB14B9404878
:101AF000006800E020460646F56AFFF7D1FB28465D
:101B000070BD2DE9F0410546FFF7FEFB00BF1F2128
:101B1000EFF3118081F31188BFF34F8FBFF36F8F05
:101B200000BF044615B93248006800E02846074661
:101B3000FE6A00BF84F3118800BF3046BDE8F08123
:101B40002DE9F04780460D464FF000090F2D01D2D8
:101B5000012000E0002050B900BF1F2080F3118851
:101B6000BFF34F8FBFF36F8F00BF00BFFEE70F2D96
:101B700000D30E25FFF76DFBB8F1000F02D11C4812
:101B8000006800E040460446E66CAE4275D0B542BF
:101B90000BD91748006884420DD015480068C06A08
:101BA000A84208D84FF0010905E0114800688442B6
:101BB00001D14FF00109E76AE16AE06C884200D187
:101BC000E562E564A06900F0004010B9C5F10F00BE
:101BD000A0611DE054000020580000206C0000208F
:101BE00044000020280200204C000020D4000020E7
:101BF0003400002004ED00E04800002050020020E6
:101C00003C00002038000020640000203C0200203E
:101C100007EB8701F94A02EB81016069884201D133
:101C2000012000E00020E0B1201DFFF76EFA30B97E
:101C30000120B840F24909688143F148016094F8F5
:101C40002C1001208840EE4909680843EC490860DF
:101C5000E16A01EB8101E94A02EB8100211DFFF7F6
:101C60002EFAB9F1000F07D04FF08050E549086017
:101C7000BFF34F8FBFF36F8F00BFFFF711FBBDE8BE
:101C8000F08710B5E048006818B10120DF4908600E
:101C900040E00020DD490860DD4800680068DC495C
:101CA0000968096B884205D8D94801683431006851
:101CB00002F0C1FBD2480068B0FA80F0C0F11F0109
:101CC00001EB8100CD4A52F8200008B1012000E06C
:101CD000002050B900BF1F2080F31188BFF34F8F41
:101CE000BFF36F8F00BF00BFFEE701EB8102C34B64
:101CF00003EB820042685268426000F108024368C8
:101D0000934202D14268526842604268D268C04B36
:101D10001A6000BF10BD70B50546FFF79AFA15B9F5
:101D2000BB48006800E028460446201DFFF7EDF997
:101D300078B9E06A00EB8000B04951F8200040B962
:101D400094F82C1001208840AD4909688143AC48C3
:101D50000160A06A18B104F11800FFF7D6F9211D3F
:101D6000AC48FFF7ACF9FFF79BFAAB48006828B125
:101D7000FFF76FFAFFF707FCFFF792FAA448006835
:101D8000844229D1A4480068D0B19F48006808B9AE
:101D9000012000E0002050B900BF1F2080F311880F
:101DA000BFF34F8FBFF36F8F00BF00BFFEE74FF051
:101DB000805094490860BFF34F8FBFF36F8F0BE0E3
:101DC0009448006895490968884203D100209049E9
:101DD000086001E0FFF755FF70BD10B50246002016
:101DE000114652B900BF1F2383F31188BFF34F8FF1
:101DF000BFF36F8F00BF00BFFEE7864C4B69A34265
:101E000001D1012300E0002373B1854C8B6AA3420A
:101E100001D1012300E0002333B98B6A0BB9012300
:101E200000E0002303B1012010BD70B505462C462B
:101E300055B900BF1F2080F31188BFF34F8FBFF348
:101E40006F8F00BF00BFFEE774B371480068844223
:101E50002AD0FFF7FEF92046FFF7BFFF10B3201D81
:101E6000FFF753F994F82C10012088406449096861
:101E7000084363490860E16A01EB81015F4A02EBB4
:101E80008100211DFFF71BF96149E06A0968C96AF1
:101E9000884207D34FF080505A490860BFF34F8FF4
:101EA000BFF36F8FFFF7FCF970BD2DE9F0410646D7
:101EB0000027344656B900BF1F2080F31188BFF3B6
:101EC0004F8FBFF36F8F00BF00BFFEE7FFF71CFA15
:101ED00000BF1F21EFF3118081F31188BFF34F8FF3
:101EE000BFF36F8F00BF05462046FFF776FF20B394
:101EF00045480068E0B94649E06A0968C96A88420D
:101F000000D30127201DFFF700F994F82C100120C1
:101F100088403B490968084339490860E16A01EB98
:101F20008101364A02EB8100211DFFF7C8F804E069
:101F300004F118013A48FFF7C2F800BF85F3118891
:101F400000BF3846BDE8F08170B523E0FFF7FFFC25
:101F50003448006808B9012000E000200546FFF77A
:101F600048FCBDB9FFF775F92E48C068C468201D4C
:101F7000FFF7CBF829480068401E284908602A4826
:101F80000068401E28490860FFF78AF92046FFF7DD
:101F90000FFB00BF244800680028D7D170BD00BFE8
:101FA000FFF7D2FFFCE71CB5204800210B4680223A
:101FB000CDE900101EA12048FFF7B5FA0446012C18
:101FC00002D102F0CFF80446012C3DD100BF1F2002
:101FD00080F31188BFF34F8FBFF36F8F00BF4FF0B7
:101FE000FF301649086001200B49086000201449A1
:101FF000086014490860FFF7D1F836E0D4000020EB
:102000004C00002004ED00E06C000020580000208F
:102010003400002050020020500000204400002026
:10202000280200203C020020400000206800002020
:1020300049444C45000000009F1F00086400002038
:10204000480000209C000020601C08B1012000E036
:10205000002050B900BF1F2080F31188BFF34F8FBD
:10206000BFF36F8F00BF00BFFEE71CBD10B500BF00
:102070001F2080F31188BFF34F8FBFF36F8F00BF16
:102080000020F8490860FFF7CFF810BDF64908684E
:10209000704770B5FFF738F90025F348046820460B
:1020A00070BDF24800687047014611B9F0480068F9
:1020B00000E00846024652B900BF1F2080F3118895
:1020C000BFF34F8FBFF36F8F00BF00BFFEE702F17A
:1020D000340070470246002101E0521C491C107870
:1020E000A528FAD0890888B270472DE9F041074643
:1020F0000C4690461E4617B9DD48006800E0384699
:102100000546256005F134006060E86A2061286BAF
:10211000E061686CA060207B032807D1FFF717FC03
:10212000A86A08B102202073FFF763FBE86C6061C6
:102130000020A061052E01D0267303E03846FFF78A
:1021400099FC2073B8F1000F04D0286BFFF7C2FF91
:10215000208401E000202084BDE8F0812DE9F047D3
:1021600007460C4690460026206848B32046416842
:102170004968416000F1080142688A4202D1416821
:10218000496841604168D1F80C9000BF2046416821
:102190004968416000F1080142688A4202D1416801
:1021A000496841604168CD6806EBC60007EB8001D5
:1021B000434601222846FFF798FF761C4D45E5D19E
:1021C0003046BDE8F0872DE9F041054688461646C1
:1021D00000240F27FFF7BBFBA4480068804539D3D4
:1021E00000BF7F1E07EB8702A24B03EB820104EBCB
:1021F000C40205EB82000122FFF7B0FF0444002F68
:10220000EFD104EBC40105EB810002229A49096871
:10221000FFF7A4FF044404EBC40105EB8100022294
:1022200096490968FFF79AFF044404EBC40105EBE3
:10223000810004229249FFF791FF044404EBC4019A
:1022400005EB810003228F49FFF788FF04440EB19C
:1022500000203060FFF7CDFA2046BDE8F08170B570
:1022600004460D4654B900BF1F2080F31188BFF308
:102270004F8FBFF36F8F00BF00BFFEE77C48016840
:1022800018312046FEF727FF01212846FFF721FBE2
:1022900070BD70B504460D46164654B900BF1F20E8
:1022A00080F31188BFF34F8FBFF36F8F00BF00BF64
:1022B000FEE77548006808B1012000E0002050B931
:1022C00000BF1F2080F31188BFF34F8FBFF36F8FC4
:1022D00000BF00BFFEE745F000406549096888611E
:1022E0006348016818312046FEF7E9FE01213046B7
:1022F000FFF7EFFA70BD70B505460E46144655B9A6
:1023000000BF1F2080F31188BFF34F8FBFF36F8F83
:1023100000BF00BFFEE75648016818312846FEF7A7
:10232000CEFE0CB14FF0FF3621463046FFF7D1FA12
:1023300070BD70B50646F068C46854B900BF1F2070
:1023400080F31188BFF34F8FBFF36F8F00BF00BFC3
:10235000FEE704F11800FEF7D8FE4B480068A8B964
:10236000201DFEF7D2FE94F82C100120884047492A
:102370000968084345490860E16A01EB81013D4A6B
:1023800002EB8100211DFEF79AFE04E004F1180122
:102390003F48FEF794FE3649E06A0968C96A8842F8
:1023A00004D9012501203B49086000E000252846AA
:1023B00070BD2DE9F04105460F463348006808B16D
:1023C000012000E0002050B900BF1F2080F31188D9
:1023D000BFF34F8FBFF36F8F00BF00BFFEE747F023
:1023E00000402860EC6854B900BF1F2080F31188BA
:1023F000BFF34F8FBFF36F8F00BF00BFFEE72846CC
:10240000FEF783FE201DFEF780FE94F82C100120BD
:1024100088401E49096808431C490860E16A01EBCD
:102420008101144A02EB8100211DFEF748FE10498C
:10243000E06A0968C96A884204D901260120154961
:10244000086000E000263046BDE8F08120BB00BFF8
:102450001F2181F31188BFF34F8FBFF36F8F00BF30
:1024600000BFFEE75000002048000020440000208C
:1024700034000020D4000020380000203C00002060
:102480003C020020500200206C0000204C00002084
:102490002802002058000020FE4909680160FE491A
:1024A00009684160704770B504460D4654B900BFD5
:1024B0001F2080F31188BFF34F8FBFF36F8F00BFD2
:1024C00000BFFEE755B900BF1F2080F31188BFF39E
:1024D0004F8FBFF36F8F00BF00BFFEE7FEF7B9FE5F
:1024E000ED4803682868401C08B9002619E0E9494E
:1024F00020680968884204D06068984201D80126A3
:102500000FE06068181A2968884209D22868616853
:10251000591A401A28602046FFF798FF002600E06D
:102520000126FEF7BDFE304670BD0120DB49086084
:102530007047014611B10A46906C00E000207047D8
:1025400008B1024691647047D54908687047D5497B
:10255000096809B9012005E0D349096809B90220D1
:1025600000E00020704770B505462C46002D4BD08A
:10257000CB49E06A0968C96A884245D2A06900F07F
:10258000004028B9C6480068C06AC0F10F00A061C9
:10259000E16A01EB8101C54A02EB81016069884271
:1025A00001D1012000E0002050B3201DFEF7ADFD59
:1025B00078B9E06A00EB8000BC4951F8200040B9CE
:1025C00094F82C1001208840B94909688143B84823
:1025D0000160B3480068C06AE06294F82C100120E2
:1025E0008840B34909680843B1490860E16A01EBD2
:1025F0008101AE4A02EB8100211DFEF760FD03E080
:10260000A7480068C06AE06270BD70B505462C46F8
:102610000026002D55D0A2480068844201D1012037
:1026200000E0002050B900BF1F2080F31188BFF3E5
:102630004F8FBFF36F8F00BF00BFFEE7206D50B913
:1026400000BF1F2080F31188BFF34F8FBFF36F8F40
:1026500000BF00BFFEE7206D401E2065E16CE06A10
:1026600088422ED0206D60BB201DFEF74EFD78B94C
:10267000E06A00EB80008D4951F8200040B994F8E1
:102680002C10012088408A490968814388480160EC
:10269000E06CE062E06AC0F10F00A06194F82C10D9
:1026A0000120884082490968084381490860E16A3D
:1026B00001EB81017D4A02EB8100211DFEF7FFFC49
:1026C0000126304670BD76490968886974490968F1
:1026D000C96AC1F10F01724A12689161704770486E
:1026E000006830B16E49096801F15000096D491C5C
:1026F00001606B480068704770B506460D46FEF7EE
:10270000A8FD67480068406D88B9012064490968E0
:1027100081F858005DB101212846FFF7DAF84FF043
:10272000805064490860BFF34F8FBFF36F8FFEF78F
:10273000B7FDFEF78EFD5A480068446D4CB126B1D6
:10274000002057490968486503E0601E544909683C
:10275000486500205249096881F85800FEF7A0FD3D
:10276000204670BD2DE9F0410746884614461D46B7
:10277000FEF76FFD4A48006890F85800022818D00C
:102780004749096801F15400496DB94301600120CE
:102790004349096881F858005DB101212846FFF7D7
:1027A00098F84FF0805043490860BFF34F8FBFF354
:1027B0006F8FFEF775FDFEF74CFD1CB138480068C1
:1027C000406D20603648006890F85800012801D11B
:1027D000002608E03249096801F15400496D21EAF8
:1027E00008010160012600202D49096881F8580080
:1027F000FEF756FD3046BDE8F0812DE9F04706466C
:102800000D46174698464FF0010A56B900BF1F20E3
:1028100080F31188BFF34F8FBFF36F8F00BF00BFEE
:10282000FEE73446FEF715FDB8F1000F02D0606DEB
:10283000C8F8000094F85890022084F85800052F3A
:1028400017D2DFE807F01503070B0D00606D284372
:1028500060650EE0606D401C60650AE0656508E03B
:10286000B9F1020F01D0656501E04FF0000A00E008
:1028700000BF00BFB9F1010F46D1201DFEF745FC96
:1028800094F82C1001208840094909680843084938
:10289000086011E05C000020480000205800002083
:1028A00034000020500000206C000020D4000020E4
:1028B0004C00002004ED00E0E16A01EB8101A14A37
:1028C00002EB8100211DFEF7FAFBA06A08B9012086
:1028D00000E0002050B900BF1F2080F31188BFF333
:1028E0004F8FBFF36F8F00BF00BFFEE79649E06ACE
:1028F0000968C96A884207D94FF080509349086037
:10290000BFF34F8FBFF36F8FFEF7CAFC5046BDE891
:10291000F0872DE9F84F07460E4690469946DDF8B8
:1029200028B00120009057B900BF1F2080F3118804
:10293000BFF34F8FBFF36F8F00BF00BFFEE7FEF7FF
:10294000E3FC3C4600BF1F21EFF3118081F31188A7
:10295000BFF34F8FBFF36F8F00BF0546B9F1000F74
:1029600002D0606DC9F8000094F858A0022084F8E5
:102970005800B8F1050F17D2DFE808F01503070B70
:102980000D00606D304360650EE0606D401C606559
:102990000AE0666508E0BAF1020F01D0666501E061
:1029A0000020009000E000BF00BFBAF1010F3ED14F
:1029B000A06A08B9012000E0002050B900BF1F2024
:1029C00080F31188BFF34F8FBFF36F8F00BF00BF3D
:1029D000FEE75F480068A8B9201DFEF796FB94F853
:1029E0002C10012088405B49096808435949086058
:1029F000E16A01EB8101534A02EB8100211DFEF7E0
:102A00005EFB04E004F118015348FEF758FB4E4901
:102A1000E06A0968C96A884209D9BBF1000F03D08E
:102A20000120CBF8000002E001204C49086000BF03
:102A300085F3118800BF0098BDE8F88F2DE9F041BB
:102A400005460F4655B900BF1F2080F31188BFF31C
:102A50004F8FBFF36F8F00BF00BFFEE7FEF754FC40
:102A60002C4600BF1F21EFF3118081F31188BFF3C3
:102A70004F8FBFF36F8F00BF064694F85880022037
:102A800084F85800606D401C6065B8F1010F3BD1BF
:102A9000A06A08B9012000E0002050B900BF1F2043
:102AA00080F31188BFF34F8FBFF36F8F00BF00BF5C
:102AB000FEE727480068A8B9201DFEF726FB94F81A
:102AC0002C100120884023490968084321490860E7
:102AD000E16A01EB81011B4A02EB8100211DFEF737
:102AE000EEFA04E004F118011B48FEF7E8FA164973
:102AF000E06A0968C96A884206D917B101203860BE
:102B000002E001201549086000BF86F3118800BF6C
:102B1000BDE8F08170B5054615B90B48006800E0C6
:102B200028460646FEF795FB96F85800022804D181
:102B3000002086F85800012400E00024FEF7B0FBD6
:102B4000204670BDD40000203400002004ED00E0D9
:102B50006C0000204C0000202802002058000020BB
:102B600010B501469F4800E0006803688B42FBD324
:102B70000246436813448B4204D143684C682344A3
:102B8000436001460A464B6813440468A34211D1CE
:102B9000954C03682468A34208D04B6804686468B5
:102BA00023444B6003681B680B6005E08E4B1B6879
:102BB0000B6001E003680B60884200D0016010BD2B
:102BC00030B54FF48843894800F007042CB1C01D8C
:102BD00020F00700854C041B1B1B0246814C226021
:102BE0000024804D6C60D018083820F007007E4C1F
:102BF000206000247C4D2D686C607B4D2D682C601E
:102C00001146441A4C60784C24680C60784D4C682E
:102C10002C60784D4C682C604FF00044764D2C6051
:102C200030BD2DE9F04104464FF00008FEF78FFE5D
:102C30006D48006808B9FFF7C3FF6F48006820407F
:102C400000286BD1D4B1083404F00700B0B104F00F
:102C50000700C0F10800044404F0070008B901208F
:102C600000E0002050B900BF1F2080F31188BFF39F
:102C70004F8FBFF36F8F00BF00BFFEE7002C4DD01A
:102C80005C480068844249D8564E3046056801E0E9
:102C90002E462D686868A04202D228680028F7D125
:102CA00051480068854239D0306800F1080828682A
:102CB00030606868001B102819D92F1907F0070029
:102CC00008B9012000E0002050B900BF1F2080F3A8
:102CD0001188BFF34F8FBFF36F8F00BF00BFFEE7B8
:102CE0006868001B78606C603846FFF739FF41491F
:102CF00068680968081A3F490860084600683C4946
:102D00000968884203D23B480068394908603A495B
:102D1000686809680843686000202860FEF769FD5C
:102D200008F0070008B9012000E0002050B900BFFA
:102D30001F2080F31188BFF34F8FBFF36F8F00BF49
:102D400000BFFEE74046BDE8F08170B50646354657
:102D5000002E3FD0083D2C4627496068096808408E
:102D600008B1012000E0002050B900BF1F2080F30F
:102D70001188BFF34F8FBFF36F8F00BF00BFFEE717
:102D8000206808B9012000E0002050B900BF1F20D2
:102D900080F31188BFF34F8FBFF36F8F00BF00BF69
:102DA000FEE7154960680968084098B1206888B94D
:102DB00011496068096888436060FEF7C8FD0D49E5
:102DC0006068096808440B4908602046FFF7C8FEA0
:102DD000FEF70FFD70BD07480068704704480068A3
:102DE00070477047700000207800002064020020C7
:102DF000800000207C0000208400002010B51C20F2
:102E0000FFF70FFF044624B100202060201DFEF7CD
:102E100046F9204610BD2DE9FE4F074688460020A2
:102E200001903C46009057B900BF1F2080F31188E5
:102E3000BFF34F8FBFF36F8F00BF00BFFEE708F0F7
:102E40007F4008B9012000E0002050B900BF1F20DA
:102E500080F31188BFF34F8FBFF36F8F00BF00BFA8
:102E6000FEE704F1040909F108000290FEF76FFD86
:102E7000D9F80C60206840EA0800206026E0D6F807
:102E800004B035680020009005F07F4A25F07F45AA
:102E90000AF0806028B92068284040B101200090E5
:102EA00005E020682840A84201D101200090009848
:102EB00058B10AF0807010B1019828430190206841
:102EC00040F000713046FFF774FA5E460298864281
:102ED000D5D12068019988432060FEF78AFC2068DC
:102EE000BDE8FE8F2DE9F84F8346884614461F46FD
:102EF0005D460020009004F07F4008B9012000E00A
:102F0000002050B900BF1F2080F31188BFF34F8FFE
:102F1000BFF36F8F00BF00BFFEE70CB1012000E0E0
:102F2000002050B900BF1F2080F31188BFF34F8FDE
:102F3000BFF36F8F00BF00BFFEE7FFF708FB00B9CC
:102F40000FB9012000E0002050B900BF1F2080F31E
:102F50001188BFF34F8FBFF36F8F00BF00BFFEE735
:102F6000FEF7F5FCD5F8009041465846FFF753FFB1
:102F700049EA08002040A04206D149EA080628682C
:102F8000A0432860002709E03FB144F0A0613A4621
:102F9000281DFFF77EF9002600E02E68FEF729FCC9
:102FA000824607B3BAF1000F07D14FF08050AC4909
:102FB0000860BFF34F8FBFF36F8FFFF784FB0646A8
:102FC00006F0007068B9FEF744F92E6806EA0400BE
:102FD000A04202D12868A0432860FEF761F90120D1
:102FE000009026F07F463046BDE8F88F10B50346C6
:102FF000002022B903EA010434B1012004E003EA0D
:1030000001048C4200D1012010BD2DE9FF4F83B097
:1030100081460D461746DDF840804C464FF0000AC9
:1030200000200190B9F1000F0AD100BF1F2080F3EA
:103030001188BFF34F8FBFF36F8F00BF00BFFEE754
:1030400005F07F4008B9012000E0002050B900BF22
:103050001F2080F31188BFF34F8FBFF36F8F00BF26
:1030600000BFFEE70DB1012000E0002050B900BF15
:103070001F2080F31188BFF34F8FBFF36F8F00BF06
:1030800000BFFEE7FFF763FA10B9B8F1000F01D1F6
:10309000012000E0002050B900BF1F2080F31188FC
:1030A000BFF34F8FBFF36F8F00BF00BFFEE7FEF788
:1030B0004EFC206800902946069A0098FFF796FF7C
:1030C0000290029838B1009E4FF00008B7B1206816
:1030D000A843206012E0B8F1000F01D1009E0DE07E
:1030E0000FB14AF0807A069808B14AF0806A45EA42
:1030F0000A014246201DFFF7CCF80026FEF779FBB7
:103100008346B8F1000F23D0BBF1000F07D14FF079
:10311000805053490860BFF34F8FBFF36F8FFFF7A5
:10312000D2FA064606F0007080B9FEF792F82668DB
:1031300029463046069AFFF759FF18B117B12068A3
:10314000A8432060FEF7ACF80020019026F07F46EF
:10315000304607B0BDE8F08F2DE9F04105460E4638
:103160002C4655B900BF1F2080F31188BFF34F8F45
:10317000BFF36F8F00BF00BFFEE706F07F4008B9C6
:10318000012000E0002050B900BF1F2080F311880B
:10319000BFF34F8FBFF36F8F00BF00BFFEE7FEF797
:1031A00058F827682068B0432060FEF779F8384661
:1031B000BDE8F08170B501460B4600BF1F25EFF357
:1031C000118085F31188BFF34F8FBFF36F8F00BF5E
:1031D00002461C68104680F3118800BF204670BD6F
:1031E00070B505462E46341DFEF7B1FB18E004F11C
:1031F0000800E168814201D0012000E0002050B9C0
:1032000000BF1F2080F31188BFF34F8FBFF36F8F74
:1032100000BF00BFFEE74FF00071E068FFF7C9F89C
:1032200020680028E3D13046FFF78FFDFEF7E1FA72
:1032300070BD70B504460D4629462046FFF7EBFDEC
:1032400070BD70B504460D4629462046FFF784FF41
:1032500070BD01460A4609B9002000E09069704738
:1032600004ED00E070B505460E462C4654B900BF8B
:103270001F2080F31188BFF34F8FBFF36F8F00BF04
:1032800000BFFEE7FDF7E5FFD4E90F12206801FB60
:10329000020060600020A0632068A060E06B401E18
:1032A000226C216800FB0210E060FF2084F84400DB
:1032B00084F845009EB9206908B9012000E000208B
:1032C000A8B904F11000FFF734F880B14FF0805036
:1032D000FB490860BFF34F8FBFF36F8F07E004F126
:1032E0001000FDF7DCFE04F12400FDF7D8FEFDF729
:1032F000D7FF012070BD2DE9F04106460D46174667
:103300009846069C0DB9246000E02760E6632564BA
:1033100001212046FFF7A6FF84F84C80BDE8F0812C
:103320002DE9F84305460E4690460DB1012000E018
:10333000002050B900BF1F2080F31188BFF34F8FCA
:10334000BFF36F8F00BF00BFFEE70EB9002701E09B
:1033500005FB06F707F15000FFF763FC044644B194
:1033600004F1500943464A46314628460094FFF787
:10337000C2FF2046BDE8F88370B50446FDF769FF3B
:1033800094F9455010E0606A08B9012000E000207F
:1033900038B904F12400FEF7CCFF18B1FFF7C5F8E7
:1033A00000E003E0681E45B2002DECDC00BFFF200A
:1033B00084F84500FDF774FFFDF74BFF94F9445086
:1033C00010E0206908B9012000E0002048B904F1AC
:1033D0001000FEF7AEFF08B1FFF7A7F8681E45B270
:1033E00000E001E0002DECDC00BFFF2084F8440089
:1033F000FDF756FF70BD70B50546FDF72AFFA86BB7
:10340000E96B884201D1012400E00024FDF748FF68
:10341000204670BD2DE9F04104460F4615464FF099
:103420000008A66B206C40B9206860BB6068FFF79D
:10343000ECF880460020606025E07DB93946226CBA
:10344000A06801F00BFD216CA0680844A060D4E9DD
:103450000110884217D32068A06014E03946226C1E
:10346000E06801F0FBFC216CE068401AE060216834
:10347000E068884203D2216C6068401AE060022D47
:1034800001D106B1761E701CA0634046BDE8F081F4
:103490002DE9FF4383B0064688461D464FF00009DC
:1034A000344654B900BF1F2080F31188BFF34F8FFB
:1034B000BFF36F8F00BF00BFFEE7B8F1000F01D16F
:1034C000206C08B9012000E0002050B900BF1F2087
:1034D00080F31188BFF34F8FBFF36F8F00BF00BF22
:1034E000FEE7022D02D1E06B012801D1012000E0AE
:1034F000002050B900BF1F2080F31188BFF34F8F09
:10350000BFF36F8F00BF00BFFEE7FFF720F808B9D9
:10351000059808B9012000E0002050B900BF1F2025
:1035200080F31188BFF34F8FBFF36F8F00BF00BFD1
:10353000FEE700BFFDF78DFEA06BE16B884201D373
:10354000022D28D12A4641462046FFF763FF074651
:10355000606A08B9012000E0002068B904F1240085
:10356000FEF7E7FE88B14FF0805055490860BFF381
:103570004F8FBFF36F8F08E03FB14FF0805050493D
:103580000860BFF34F8FBFF36F8FFDF789FE0120F7
:1035900007B0BDE8F083059818B9FDF781FE00205B
:1035A000F6E7B9F1000F04D101A8FEF74FFF4FF085
:1035B0000109FDF775FEFEF7CAF9FDF74AFE94F919
:1035C0004400401C10B9002084F8440094F94500E0
:1035D000401C10B9002084F84500FDF761FE05A9E4
:1035E00001A8FEF760FFF0B92046FFF704FFA0B185
:1035F00004F110000599FEF732FE2046FFF7BCFEED
:10360000FEF7F7F8002895D14FF080502C4908605C
:10361000BFF34F8FBFF36F8F8CE72046FFF7ACFEF1
:10362000FEF7E7F886E72046FFF7A6FEFEF7E1F88B
:103630000020ADE710B504464CB10020606020606A
:10364000E06000231A4619462046FFF721FF10BD0F
:103650002DE9F041044601260027224600210120E1
:10366000FFF75EFE05462846FFF7E4FF2846BDE863
:10367000F0812DE9F05F07468A4690461E463C469B
:1036800054B900BF1F2080F31188BFF34F8FBFF3E1
:103690006F8F00BF00BFFEE7BAF1000F01D1206CB1
:1036A00008B9012000E0002060B900BF1F2080F3AE
:1036B0001188BFF34F8FBFF36F8F00BF00BFFEE7CE
:1036C00004ED00E0022E02D1E06B012801D10120BF
:1036D00000E0002050B900BF1F2080F31188BFF325
:1036E0004F8FBFF36F8F00BF00BFFEE7FDF70CFEEB
:1036F00000BF1F21EFF3118081F31188BFF34F8FBB
:10370000BFF36F8F00BF0546A06BE16B884201D30A
:10371000022E23D194F945B0324651462046FFF798
:1037200079FE0BF1010088B9606A08B9012000E058
:10373000002080B904F12400FEF7FBFD58B1B8F178
:10374000000F08D00120C8F8000004E00BF10100D0
:1037500040B284F845004FF0010901E04FF0000944
:1037600000BF85F3118800BF4846BDE8F09F2DE9F2
:10377000F04706460F46344654B900BF1F2080F379
:103780001188BFF34F8FBFF36F8F00BF00BFFEE7FD
:10379000206C08B9012000E0002050B900BF1F20B4
:1037A00080F31188BFF34F8FBFF36F8F00BF00BF4F
:1037B000FEE7206808B9606808B9012000E0002031
:1037C00050B900BF1F2080F31188BFF34F8FBFF3A4
:1037D0006F8F00BF00BFFEE7FDF796FD00BF1F2102
:1037E000EFF3118081F31188BFF34F8FBFF36F8F19
:1037F00000BF0546D4F83890E06B48451ED994F9CF
:1038000045A009F10100A0630AF1010070B9606AE6
:1038100008B9012000E0002068B904F12400FEF797
:1038200088FD40B13FB10120386004E00AF1010099
:1038300040B284F845004FF0010801E04FF0000865
:1038400000BF85F3118800BF4046BDE8F08770B522
:103850000546FDF7FEFCA86B08B9012400E0002432
:10386000FDF71EFD204670BD70B504460D46206C68
:1038700070B1216CE0680844E0606168E0688842EB
:1038800001D32068E0602846226CE16801F0E6FA86
:1038900070BD2DE9FF4782B005460E461F464FF02A
:1038A000000A2C4654B900BF1F2080F31188BFF3D3
:1038B0004F8FBFF36F8F00BF00BFFEE70EB9206CC4
:1038C00008B9012000E0002050B900BF1F2080F39C
:1038D0001188BFF34F8FBFF36F8F00BF00BFFEE7AC
:1038E000FEF735FE08B9049808B9012000E0002071
:1038F00050B900BF1F2080F31188BFF34F8FBFF373
:103900006F8F00BF00BFFEE700BFFDF7A2FCD4F839
:103910003890B9F1000F3DD0D4F80C8031462046E4
:10392000FFF7A2FFDFB9A9F10100A063206810B979
:10393000FEF7D5FE6060206908B9012000E0002094
:1039400010BB04F11000FEF7F4FCE8B14FF080501A
:10395000FB490860BFF34F8FBFF36F8F14E0C4F8CB
:103960000C80606A08B9012000E0002060B904F111
:103970002400FEF7DEFC38B14FF08050F0490860BB
:10398000BFF34F8FBFF36F8FFDF78AFC012006B0A6
:10399000BDE8F087049818B9FDF782FC0020F6E72F
:1039A000BAF1000F04D16846FEF750FD4FF0010A4E
:1039B000FDF776FCFDF7CBFFFDF74BFC94F94400D7
:1039C000401C10B9002084F8440094F94500401CC4
:1039D00010B9002084F84500FDF762FC04A9684690
:1039E000FEF761FD40BB2046FFF731FFF0B12068D4
:1039F00030B9FDF72EFC6068FEF7B5FDFDF750FC11
:103A000004F124000499FEF72AFC2046FFF7B4FCD9
:103A1000FDF7EFFE00287FF478AF4FF08050C849E3
:103A20000860BFF34F8FBFF36F8F6EE72046FFF73D
:103A3000A3FCFDF7DEFE68E72046FFF79DFCFDF7DF
:103A4000D8FE2046FFF703FF0028EED000209EE7B7
:103A50002DE9F05F064689461746344654B900BF43
:103A60001F2080F31188BFF34F8FBFF36F8F00BF0C
:103A700000BFFEE7B9F1000F01D1206C08B90120A9
:103A800000E0002050B900BF1F2080F31188BFF371
:103A90004F8FBFF36F8F00BF00BFFEE7FDF734FC11
:103AA00000BF1F21EFF3118081F31188BFF34F8F07
:103AB000BFF36F8F00BF0546D4F838A0BAF1000FEE
:103AC00022D094F944B049462046FFF7CDFEAAF132
:103AD0000100A0630BF1010070B9206908B9012051
:103AE00000E0002068B904F11000FEF722FC40B1AC
:103AF0003FB10120386004E00BF1010040B284F8CE
:103B000044004FF0010801E04FF0000800BF85F3CA
:103B1000118800BF4046BDE8F09F2DE9F0470646FA
:103B20008846344654B900BF1F2080F31188BFF384
:103B30004F8FBFF36F8F00BF00BFFEE7B8F1000FDC
:103B400001D1206C08B9012000E0002050B900BF6D
:103B50001F2080F31188BFF34F8FBFF36F8F00BF1B
:103B600000BFFEE7206C08B1012000E0002050B942
:103B700000BF1F2080F31188BFF34F8FBFF36F8FFB
:103B800000BF00BFFEE7FDF7BFFB00BF1F21EFF343
:103B9000118081F31188BFF34F8FBFF36F8F00BF88
:103BA0000546A06B48B1D4F80C9041462046FFF77B
:103BB0005BFEC4F80C90012700E0002700BF85F3EE
:103BC000118800BF3846BDE8F08770B5044654B987
:103BD00000BF1F2080F31188BFF34F8FBFF36F8F9B
:103BE00000BF00BFFEE7FDF734FBA56BFDF758FBF8
:103BF000284670BD70B50446254655B900BF1F2044
:103C000080F31188BFF34F8FBFF36F8F00BF00BFEA
:103C1000FEE7FDF71EFBD5E90E10461AFDF740FB47
:103C2000304670BD014651B900BF1F2282F3118892
:103C3000BFF34F8FBFF36F8F00BF00BFFEE7886BEE
:103C40007047014600200EE03E4A02EBC002526877
:103C50008A4207D100223B4B43F8302003EBC003DC
:103C60005A6002E0401C0828EED300BF704770B5D0
:103C70000446254655B900BF1F2080F31188BFF3C5
:103C80004F8FBFF36F8F00BF00BFFEE72846FFF7DF
:103C9000D8FF2846FFF759F870BD0146886C704779
:103CA00081647047014691F84C007047014651B954
:103CB00000BF1F2282F31188BFF34F8FBFF36F8FB6
:103CC00000BF00BFFEE78A6B0AB9012000E00020B8
:103CD0007047014651B900BF1F2282F31188BFF31C
:103CE0004F8FBFF36F8F00BF00BFFEE78A6BCB6BB8
:103CF0009A4201D1012000E00020704702460020D6
:103D00000BE0104B53F8303033B90E4B43F8301002
:103D100003EBC0035A6002E0401C0828F1D300BF47
:103D200070470246002000210FE0064B03EBC10361
:103D30005B68934208D1034B53F8310007E0000061
:103D400004ED00E064460020491C0829EDD300BFC3
:103D500070472DE9F04105460E4617462C46FDF703
:103D600078FA94F94400401C10B9002084F844000B
:103D700094F94500401C10B9002084F84500FDF777
:103D80008FFAA06B28B93A46314604F12400FEF7B9
:103D9000B2FA2046FFF7F0FABDE8F0812DE9F041D4
:103DA00004460D4616461F464FF000086560246124
:103DB000B5420CD8F01BA169884202D34FF001082C
:103DC00011E0211DF7480068FDF785F90BE0BE42C0
:103DD00004D2BD4202D34FF0010804E0211DF24895
:103DE0000068FDF778F94046BDE8F0812DE9FE4313
:103DF00004460D4616461F46DDF828804FF00009A0
:103E000054B900BF1F2080F31188BFF34F8FBFF359
:103E10006F8F00BF00BFFEE7E448006810B3009555
:103E200001960294062D15DAFEF791FB022808D1BF
:103E3000002342466946DD480068FFF729FB8146BA
:103E400010E000231A466946D8480068FFF720FBB7
:103E5000814607E000233A466946D4480068FFF7E8
:103E600008FC81464846BDE8FE832DE9F84332E070
:103E7000CD480068C0680568CB480068C068C46861
:103E8000201DFDF742F92046616A8847E069012854
:103E900021D1A0694619AE4207D966602461211D6F
:103EA000C1480068FDF717F915E0002003462A46CF
:103EB000014600902046FFF799FF074657B900BF1B
:103EC0001F2080F31188BFF34F8FBFF36F8F00BFA8
:103ED00000BFFEE700BFB4480068006808B90120D1
:103EE00000E000200028C3D0AF48D0F80080AD48E3
:103EF0000068AD490860AB48C0F80080BDE8F883B1
:103F000070B50446FEF7C2F80546A9480068854228
:103F100004D2FFF7AAFF0120206001E0002020600A
:103F2000A3480560284670BD70B586B06AE0039866
:103F3000002867DB059C606908B9012000E00020CB
:103F400010B9201DFDF7E1F802A8FFF7D9FF0546DB
:103F500003980A2854D2DFE800F009050731334FEF
:103F60000608323400BF00BF00BF00BF0498A2693A
:103F7000811803462A462046FFF710FFE8B1204685
:103F8000616A8847E069012817D1002000900498F1
:103F9000A1694218002319462046FFF727FF06466D
:103FA00056B900BF1F2080F31188BFF34F8FBFF3B6
:103FB0006F8F00BF00BFFEE700BF22E000BF20E020
:103FC00000BF0498A061A06908B1012000E00020B2
:103FD00050B900BF1F2080F31188BFF34F8FBFF38C
:103FE0006F8F00BF00BFFEE7A06941192B462A462C
:103FF0002046FFF7D3FE04E02046FEF7A6FE00E0D1
:1040000000BF00BF00231A4603A968480068FFF7F5
:1040100040FC00288BD106B070BDF8B505460F46B0
:1040200061480068C068C468201DFDF76EF8E0694B
:1040300001281DD1A06941192B463A462046FFF7B9
:10404000ADFEA8B1002003462A4601460090204656
:10405000FFF7CCFE064656B900BF1F2080F311883B
:10406000BFF34F8FBFF36F8F00BF00BFFEE700BFEE
:104070002046616A8847F8BDF8B505460C46FDF74D
:1040800066FC6846FFF73CFF0646009820BB44B933
:10409000B54206D8FDF7ADFB31462846FFF7BDFF18
:1040A0001CE03CB13F480068006808B9012000E00E
:1040B00000200446A91B22463C480068FFF749FE41
:1040C000FDF797FB50B94FF080503A490860BFF3B5
:1040D0004F8FBFF36F8F01E0FDF78BFBF8BD0146FB
:1040E000314A126812680AB9012200E000220A600F
:1040F0000A6822B92C4A1268D268106800E00020D1
:10410000704708B500BF6846FFF7E9FF0446204640
:104110000099FFF7B1FFFFF707FFF4E710B5FDF7D0
:1041200098F822480068D0B92348FCF7B8FF234824
:10413000FCF7B5FF20481C49086020481949086071
:1041400000220C210520FFF7EBF81849086008460B
:10415000006820B11AA115480068FFF7CFFDFDF7F0
:104160009FF810BD1CB50024FFF7D8FF0F4800686A
:1041700050B1154802210023CA01CDE9001013A156
:104180001448FDF7D0F9044654B900BF1F2080F34E
:104190001188BFF34F8FBFF36F8F00BF00BFFEE7E3
:1041A00020461CBD8C0000208800002090000020CC
:1041B0009800002004ED00E0A4460020B84600204E
:1041C000546D72510000000094000020546D722064
:1041D00053766300034100082DE9F04706460D467B
:1041E00017469846DDE908940DB1012000E0002053
:1041F00050B900BF1F2080F31188BFF34F8FBFF36A
:104200006F8F00BF00BFFEE75CB1FFF787FF26603E
:10421000A561E761C4F82080C4F82490201DFCF754
:104220004BFFBDE8F0872DE9FC4705460E461746D3
:104230009846DDF828902C20FEF7F3FC04463CB1AC
:1042400043463A4631462846CDE90094FFF7C4FF7D
:104250002046BDE8FC874748006808B1012000E01F
:10426000002050B900BF1F2080F31188BFF34F8F8B
:10427000BFF36F8F00BF00BFFEE73E480068704786
:1042800001460A4651B900BF1F2080F31188BFF3D1
:104290004F8FBFF36F8F00BF00BFFEE7906970477D
:1042A00010B501460A4651B900BF1F2383F3118898
:1042B000BFF34F8FBFF36F8F00BF00BFFEE75068A3
:1042C00010BD01460A4651B900BF1F2080F3118876
:1042D000BFF34F8FBFF36F8F00BF00BFFEE71068C3
:1042E000704770B50446264654B900BF1F2080F3BE
:1042F0001188BFF34F8FBFF36F8F00BF00BFFEE782
:10430000FCF7A7FF706908B9012000E0002080F0E9
:104310000105FCF7C5FF284670BD70B5044625466B
:1043200054B900BF1F2080F31188BFF34F8FBFF334
:104330006F8F00BF00BFFEE7FCF78BFF2E6AFCF714
:10434000AFFF304670BD70B504460D46264654B9E1
:1043500000BF1F2080F31188BFF34F8FBFF36F8F13
:1043600000BF00BFFEE7FCF774FF3562FCF798FF63
:1043700070BD00009400002008B500BF14E04FF4A9
:10438000487001231A46032100902B480068FEF76D
:104390003CFE044604F00300032802D100F0E5FAD5
:1043A00002E026A000F090FDE9E710B5FEF726FD3B
:1043B0002149086010BD1CB52D480A210023322276
:1043C000CDE900102BA12E48FDF7ADF82D480921AD
:1043D00000234FF48072CDE900102BA12F48FDF788
:1043E000A2F82F48082100234A01CDE900102DA191
:1043F0002F48FDF798F81CBD10B54FF44070FBF73F
:10440000EFFF49F6404000F099FA00F0E1F910BDE5
:1044100010B5FBF764FF012080F3108800BFFFF7A1
:10442000EBFF24A000F050FDFFF7C5FFFFF7BDFF35
:10443000FDF7B9FD10BD7047AC0000202D2D2D2DCE
:104440002D2D2D2D2D2D77616974207468652062C6
:104450006974732074696D65206F7574202D2D2D1E
:104460002D2D2D2D2D2D2D2D2D2D0D0A0000000073
:10447000A4000020646F675F7461736B000000002C
:1044800079430008A00000207264735F656E636F5B
:104490006465725F7461736B00000000C54B0008B7
:1044A000A8000020616D705F7461736B00000000F4
:1044B000714D00082D2D2D2D2D2D2D2D537973741B
:1044C000656D2073746172742D2D2D2D2D2D2D2D64
:1044D0000D0A000070B505460E461446012C04D1A5
:1044E00031462846FCF733FB05E0022C03D1314668
:1044F0002846FCF71FFB70BDF8B506460C4615466E
:10450000ADF8004003208DF802008DF80350694695
:104510003046FCF733F8F8BD70B504460D46164634
:10452000324629462046FFF7E7FF70BD70B50446C6
:104530000D461646324629462046FFF7DDFF70BD80
:1045400070B504460D4600BF80212046FCF700FDF3
:104550000028F9D029462046FCF78CFC70BD10B528
:104560000146002208680089C0F308000B689B8898
:10457000C3F30803984201D1002010BD19E0086878
:1045800000680B681B89C3F30803C05C4B685B6859
:104590004C686488185548684088401C4B685880AF
:1045A00008680089C0F30800401C0B689860501C24
:1045B00082B208680089C0F308000B689B88C3F3C7
:1045C00008039842DBD11046D7E7014609B9CD4828
:1045D0007047012901D10020FAE7022901D1CA4818
:1045E000F6E7032901D10020F2E7042901D10020D8
:1045F000EEE70020ECE770B505462846FFF7E5FF3B
:10460000044604B970BD2046FFF7A9FF00BFF9E7D3
:1046100008B525208DF8000001208DF8010000204C
:104620008DF8020001208DF803006846FBF7DDFEDF
:1046300027208DF8000001208DF8010000208DF862
:10464000020001208DF803006846FBF7CEFE08BD8E
:104650001FB5022201210420FFF73CFF02220121A5
:104660008803FFF737FF18224FF40071A748FFF7C0
:1046700053FF04221102A548FFF758FF40F22551CD
:10468000A348FCF772FC4FF4964000900020ADF870
:104690000400ADF80600ADF808000C20ADF80A00E3
:1046A0000020ADF80C0069469948FCF7EAFA0122AF
:1046B00040F225519648FCF77CFB01219448FCF719
:1046C0006CFB40219248FCF750FC0222012108209B
:1046D000FFF700FF012211469004FFF7FBFE1822AE
:1046E0004FF480618B48FFF717FF0422510289487D
:1046F000FFF71CFF40F225518748FCF736FC4FF4CA
:10470000165000900020ADF80400ADF80600ADF89A
:1047100008000C20ADF80A000020ADF80C00694636
:104720007D48FCF7AEFA012240F225517A48FCF7A9
:1047300040FB01217848FCF730FB40217648FCF72C
:1047400014FC1FBD10B57548754908604FF4007022
:1047500074490880002048807348486008464068D3
:1047600028B94FF4007000F0D7FB6E4948606D49DE
:1047700048684FF4007100F08AFB6948614908609D
:104780006848486000208860C860684868490860D8
:104790004FF40070674908800020488066484860F0
:1047A0000846406828B94FF4007000F0B5FB614935
:1047B0004860604948684FF4007100F068FB5C484D
:1047C000514908605B48486000208860C86010BD9F
:1047D00010B5FFF7B7FFFFF73BFFFFF719FF10BD5D
:1047E000014609B94A487047012901D10020FAE77A
:1047F000022901D14848F6E7032901D10020F2E758
:10480000042901D10020EEE70020ECE770B5054651
:104810000E462846FFF7E4FF044604B970BD314652
:104820002046FFF78DFE00BFF8E72DE9F0418046F6
:104830000D46164600244046FFF7D2FF07460FB943
:10484000BDE8F081002405E0295D3846FFF778FED9
:10485000601C84B2B442F7DB00BFF1E770B50446D8
:104860000D461646324629462046FFF7DEFF70BD4C
:104870002DE9F04106460C4600273046FFF7B0FF11
:1048800005460DB9BDE8F08140F225512846FCF7F8
:1048900075FBE0B12846FCF7F1FAC7B220688088C2
:1048A000C0F30800401C21680989C1F3080188424F
:1048B00006D02068006821688988C1F30801475440
:1048C00020688088C0F30800401C2168486040F2DE
:1048D00027712846FCF752FB28B1002240F22771CD
:1048E0002846FCF766FA00BFCCE710B50549002062
:1048F000FFF7BEFF10BD10B503490220FFF7B8FF58
:1049000010BD0000DC4A0020FC4E002000080140E1
:1049100000380140000C014000480040CC46002017
:10492000CC4A0020B0000020CC480020EC4A0020F7
:10493000EC4E0020B8000020EC4C002010B50446DE
:104940007D20FBF7CCFF08B1FCF732F945F255505A
:10495000FBF762FF0320FBF762FF2046FBF762FFD5
:10496000FBF763FFFBF766FF10BD10B5FBF75DFFBC
:1049700010BD000008B500208DF8000005208DF85E
:10498000010000208DF8020001208DF80300684628
:10499000FBF72BFD08BD70B505460C467E20FBF7E6
:1049A0009EFF08B1FCF704F901221146D002FFF77F
:1049B00091FD4FF4C070FCF730FB2046FCF736FB4E
:1049C0002846FCF74EFBFCF757FBFCF740FBFFF7D4
:1049D000D1FF70BD10B5044820B1FCF74DFB7F201E
:1049E000FCF739FB10BD00006F10000810B502463F
:1049F0000B460021002000BF03E0545C0444E0B2F9
:104A0000491C9942F9D310BD70B504460D46E1B278
:104A10000C48FCF72FFA00BF40210A48FCF798FA2F
:104A20000028F9D0204670BD10B5044600BF2021F3
:104A30000448FCF78DFA0028F9D00248FCF71EFA6A
:104A400010BD0000004800408F4800210160416017
:104A50008160704770B504460D462A462146002005
:104A6000FFF7E3FE70BD2DE9F04106460F46144600
:104A70000025FE20854908700846467000BF05E005
:104A8000795DA81C814A1154681CC5B2A542F7DBA8
:104A9000FF21A01C7D4A1154E01CC1B21046FFF753
:104AA000D9FFBDE8F08108B5522000900122694687
:104AB0007120FFF7D8FF08BD08B500200090012243
:104AC00069466E20FFF7CFFF08BD08B512208DF8AC
:104AD000000034208DF80100022269460020FFF713
:104AE000C2FF08BD08B5002000900122694672206F
:104AF000FFF7B9FF08BD08B5002000900122694604
:104B00007420FFF7B0FF08BD08B500200090012217
:104B100069467320FFF7A7FF08BD70B504460D4630
:104B2000AA20594908702A4621465748401C00F0DF
:104B300095F955205449C87270BD10B501205449EB
:104B4000087048708870C8700871002048718871BA
:104B5000C871087209214E48FFF748FF4C49487256
:104B60000A214B48FFF7D9FF10BD10B50220484974
:104B7000087048708870C87008710020487188718A
:104B8000C871087209214248FFF730FF4049487256
:104B90000A213F48FFF7C1FF10BD10B50C223A496A
:104BA0007720FFF760FF10BD38B504460020009065
:104BB000012C01D10C200090012269467620FFF7DC
:104BC00052FF38BD00240A25FFF73EFFFFF76BFFB9
:104BD0004FF4FA70FCF725FF01212E480068FEF71C
:104BE0001AF94FF4FA70FCF71CFF012129480068FC
:104BF000FEF711F94FF4FA70FCF713FF0121254875
:104C00000068FEF708F924A000F05EF9FFF754FFF2
:104C10002846FCF706FFFFF758FF2846FCF701FF80
:104C2000FFF760FF2846FCF7FCFEFFF764FF28460D
:104C3000FCF7F7FEFFF768FF2846FCF7F2FE21E0DD
:104C400011480078AA280ED10020FFF7ADFF2846B2
:104C5000FCF7E7FEFCF7FDFAFFF79FFFFCF720FBF0
:104C60000120FFF7A1FF00240AE0012109480068A4
:104C7000FEF7D1F84FF4FA70FCF7D3FE601CC4B213
:104C80000B2CF2DBDCE700000C4F0020184F00205B
:104C90002C4F0020AC0000202D2D2D2D2D2D2D2D45
:104CA00072647320656E636F6465722072657365EC
:104CB00074207375632D2D2D2D2D2D2D2D0D0A0096
:104CC00000205C4908705C490870704710B50222EA
:104CD00001214020FFF7FEFB482280215748FFF7C3
:104CE00025FC042211025548FFF720FC0422D101C3
:104CF0005248FFF71BFC102211015048FFF70CFC33
:104D000010BD38B504464C4800781E2810DD6420DC
:104D100000231A46032100902046FFF767F84FF45E
:104D200080714648FBF7D9FC00204349087004E035
:104D300041480078401C4049087038BD08B5FFF76D
:104D4000BFFFFFF7C3FF3E4801231A464FF47A71B5
:104D500000903CA0FFF767FA3E49086064200023FA
:104D60001A46032100903B480068FFF73FF808BD52
:104D700008B5FFF7E3FF5BE0012400250026802152
:104D80002E48FBF78EFC04464FF480612B48FBF75E
:104D900088FC05464FF400712848FBF782FC064664
:104DA0001CB1012D01D0012E1CD122480078C8B9B8
:104DB0004FF480712148FBF78EFC642000231A46D3
:104DC0000321009023480068FFF710F800201A49DB
:104DD0000870FCF73EFAFFF7B0FEFCF761FA01201D
:104DE00014490870012C1AD1CDB9C6B91148007800
:104DF000012814D1FCF72DFAFFF7B7FEFCF750FAA3
:104E0000FDF744F90746642000233A46012100904B
:104E100010480068FEF7EAFF0020064908700221EA
:104E20000D480068FDF7F7FF1E20FCF7FAFD00BFF4
:104E3000A2E70000C4000020C500002000180140C7
:104E4000034D0008616D7020636C6F736520746999
:104E50006D657200C0000020AC00002040EA010334
:104E60009B0703D009E008C9121F08C0042AFAD220
:104E700003E011F8013B00F8013B521EF9D27047E4
:104E8000D2B201E000F8012B491EFBD2704700228C
:104E9000F6E710B513460A4604461946FFF7F0FF39
:104EA000204610BD064C074D06E0E06840F00103C7
:104EB00094E8070098471034AC42F6D3FBF73CF96E
:104EC000844F0008A44F0008014A024900F013B8BB
:104ED000094A0008C800002002E008C8121F08C1E3
:104EE000002AFAD170477047002001E001C1121F6B
:104EF000002AFBD170472DE9F04116460F460446C3
:104F0000002503E03946B047641C6D1C207800285A
:104F1000F8D12846BDE8F081F0B50B30154D20F0F2
:104F200007010024144A0FE003688B420BD38B4225
:104F300005D95E1A43184768C3E9006700E0436873
:104F4000136002C004E0021D10680028ECD1204666
:104F5000002802D1286808B10020F0BD064A0748A1
:104F60001060074A121A22F00702C0E9002401204B
:104F70002860D7E7D0000020CC0000203C4F002064
:104F800038510020A44F000800000020D400000089
:104F9000D84E000878500008D40000206454000067
:104FA000E84E000800A24A040000000000000000D3
:104FB00001020304060708090000000001020304BF
:104FC000010203040607080902040608AAAAAAAAFD
:104FD00000000000000000000000000000000000D1
:104FE00000000000000000000000000000000000C1
:104FF00000000000000000000000000000000000B1
:1050000000000000000000000000000000000000A0
:105010000000000000000000000000000000000090
:105020000000000000000000000000000000000080
:105030000000000000000000000000000000000070
:105040000000000000000000000000000000000060
:105050000000000000000000000000000000000050
:105060000000000000000000000000000000000040
:08507000000000000000000038
:0400000508000131BD
:00000001FF
