:020000040800F2
:1000000020600020DD010008E5010008E70100088C
:10001000E9010008EB010008ED0100080000000004
:100020000000000000000000000000004501000882
:10003000691000080000000089010008A5120008EE
:1000400087340008F7010008F7010008F7010008ED
:10005000F7010008F7010008F7010008F7010008A0
:10006000F7010008F7010008F7010008F701000890
:10007000F7010008F7010008F7010008F701000880
:10008000F7010008F7010008F7010008F701000870
:10009000F7010008F7010008F7010008F701000860
:1000A000F7010008F7010008F7010008F701000850
:1000B000F7010008F7010008F7010008F701000840
:1000C000F7010008F7010008F7010008F701000830
:1000D000F7010008A5330008B1330008BD3300085C
:1000E000F7010008F7010008F7010008F701000810
:1000F000F7010008F7010008F7010008F701000800
:10010000F7010008F7010008F7010008F7010008EF
:10011000C9330008D5330008F7010008F7010008CB
:10012000F7010008F7010008F7010008F7010008CF
:10013000DFF80CD003F0C4F9004800474D10000868
:1001400020600020224B19680868B0E8F00F80F3A7
:100150000988BFF36F8F4FF0000080F311884EF0D5
:100160000D0E70470000000006480068006880F32C
:10017000088862B661B6BFF34F8FBFF36F8F00DFA1
:1001800000BF00BF08ED00E0EFF30980BFF36F8F01
:100190000F4B1A6820E9F00F106008B54FF01F00F0
:1001A00080F31188BFF34F8FBFF36F8F01F00CFD09
:1001B0004FF0000080F31188BDE808401968086816
:1001C000B0E8F00F80F30988BFF36F8F704700BF6E
:1001D00034000020EFF30580704700000648804798
:1001E00006480047FEE7FEE7FEE7FEE7FEE7FEE71C
:1001F000FEE7FEE7FEE7FEE7DF0200083101000848
:100200000CB50020019000906C48006840F48030EC
:100210006A49086000BF6948006800F40030009037
:100220000198401C0190009818B90198B0F5A06F92
:10023000F1D16248006800F4003010B10120009054
:1002400001E0002000900098012843D15C4800683C
:1002500040F010005A4908600846006820F003008A
:1002600008600846006840F0020008605348406893
:10027000524948600846406848600846406840F473
:10028000806048600846406820F47C10486008465A
:10029000406840F4E81048600846006840F080700C
:1002A000086000BF4548006800F000700028F9D0E1
:1002B0004248406820F003004049486008464068D2
:1002C00040F00200486000BF3C48406800F00C006D
:1002D0000828F9D10CBD10B5FFF792FF10BD10B57D
:1002E0003648006840F0010034490860084640681C
:1002F000344908403149486008460068324908409E
:100300002E4908600846006820F4802008600846EE
:10031000406820F4FE0048604FF41F008860FFF73B
:10032000DAFF4FF000602949086010BD10B50021C8
:1003300000200022214B5B6803F00C0121B104294D
:1003400006D0082928D107E0214B224C236027E062
:100350001F4B204C236023E0184B5B6803F47010A4
:10036000164B5B6803F48032022303EB904022B902
:10037000194B4343174C23600DE0104B5B6803F4AB
:10038000003323B1144B4343124C236003E0104B62
:100390004343104C236003E00D4B0E4C236000BF21
:1003A00000BF064B5B68C3F303130C4CE15C094BC5
:1003B0001B68CB40074C236010BD000000100240BA
:1003C000002002400000FFF8FFFFF6FE08ED00E00D
:1003D00000127A000000002000093D000400002007
:1003E00031490143314A1160704770B50021002343
:1003F0000F22C47804B32D4C246804F4E064C4F5DF
:10040000E064210AC1F10403CA40447804FA03F10C
:100410008478144021430901254C0678A1550478BD
:1004200004F01F050124AC4005786D11AD0005F105
:10043000E025C5F8004109E0047804F01F05012417
:10044000AC401C4D0678761145F8264070BD1A4A1E
:100450000A400243154B1B1F1A60704739B1134AFB
:10046000121D12680243114B1B1D1A6006E00F4A51
:10047000121D126882430D4B1B1D1A607047042821
:1004800008D14FF0E021096941F004014FF0E0226A
:10049000116107E04FF0E021096921F004014FF0FC
:1004A000E0221161704700000000FA050CED00E049
:1004B00000E400E080E100E080FFFF1F10B504468B
:1004C000CC48844208D10121042000F02DFB0021FA
:1004D000042000F029FB46E0C748844208D10121EE
:1004E000082000F021FB0021082000F01DFB3AE06D
:1004F000C248844208D10121102000F015FB0021E0
:10050000102000F011FB2EE0BD48844208D10121EB
:10051000202000F009FB0021202000F005FB22E054
:10052000B848844208D10121402000F0FDFA0021A2
:10053000402000F0F9FA16E0B348844208D10121C6
:10054000802000F0F1FA0021802000F0EDFA0AE0AE
:10055000AE48844207D10121801500F0E5FA002160
:10056000A01500F0E1FA10BD10B50121084600F019
:10057000DBFA0021012000F0D7FA10BD2DE9F0418F
:10058000024600250026002000230024002791F8C1
:1005900003C00CF00F0591F803C00CF0100CBCF177
:1005A000000F03D091F802C04CEA050591F800C095
:1005B000BCF1000F31D0146800202BE04FF0010C8B
:1005C0000CFA00F3B1F800C00CEA03069E4220D1F9
:1005D00083004FF00F0C0CFA03F7BC4305FA03FC41
:1005E0004CEA040491F803C0BCF1280F06D14FF087
:1005F000010C0CFA00FCC2F814C00AE091F803C028
:10060000BCF1480F05D14FF0010C0CFA00FCC2F808
:1006100010C0401C0828D1D31460B1F800C0BCF150
:10062000FF0F34DD546800202EE000F1080C4FF07D
:10063000010808FA0CF3B1F800C00CEA03069E4268
:1006400021D183004FF00F0C0CFA03F7BC4305FADD
:1006500003FC4CEA040491F803C0BCF1280F05D157
:1006600000F1080C08FA0CF8C2F8148091F803C0E5
:10067000BCF1480F07D100F1080C4FF0010808FA4F
:100680000CF8C2F81080401C0828CED35460BDE896
:10069000F0814FF6FF710180022181700421C17049
:1006A00070470246002093680B400BB1012000E028
:1006B000002070470146886880B2704702460020DB
:1006C000D3680B400BB1012000E0002070470146C9
:1006D000C86880B2704701617047416170470AB1D4
:1006E000016100E041617047C16070474FF48032A2
:1006F0000A43826181618261826982697047024630
:100700000020434B18684FF68073184040EA0210EF
:1007100008433F4B186070473E49C8617047F0B5C9
:100720000A46002300240021002500F00046B6F10F
:10073000004F02D1364EF16901E0354E7168C0F3C9
:10074000034583B200F44016B6F5401F08D121F0EE
:1007500070612F4E766826F070662D4F7E6012E035
:1007600000F48016B6F5801F06D1032606FA05F4BC
:10077000A14341F0706106E0460D360103FA06F62A
:10078000B14341F0706122B1460D360103FA06F61D
:10079000314300F00046B6F1004F02D11C4EF1612A
:1007A00001E01B4E7160F0BD30B500228B071C0FBD
:1007B0000F2303FA04F2164B08338C1053F824303D
:1007C0009343134C08348D1044F8253023468C1085
:1007D00053F824308C07240F00FA04F423430C4C04
:1007E00008348D1044F8253030BD0A49DC310860EA
:1007F0007047000000080140000C0140001001405B
:100800000014014000180140001C0140002001407C
:100810000000014000002042DF48006840F0010075
:10082000DD49086008464068DC490840DA4948600C
:1008300008460068DA490840D74908600846006859
:1008400020F4802008600846406820F4FE004860DC
:100850004FF41F0088607047CF49096821F4803148
:10086000CD4A11601146096821F480211160B0F56C
:10087000803F03D0B0F5802F0ED106E0C64909684D
:1008800041F48031C44A116007E0C349096841F46A
:10089000A021C14A116000E000BF00BF704710B541
:1008A00001460022002300204A11012A02D1BA4C3D
:1008B000236806E0022A02D1B74C236A01E0B64C55
:1008C000636A01F01F02012494401C400CB1012016
:1008D00000E0002010BD38B5002000900024002565
:1008E00000BF3120FFF7DBFF05460098401C009059
:1008F0000098B0F5A06F01D0002DF2D03120FFF7A5
:10090000CEFF08B1012400E00024204638BD014696
:100910000020A14A106820F0F80040EAC1001060F1
:100920007047A04908607047024600209A4B5868FB
:1009300020F47C1042EA01031843974B586070473B
:1009400098490866704701460020934A506820F095
:1009500003000843506070478F48406800F00C0067
:100960007047014600208C4A506820F0F000084390
:100970005060704701460020874A506820F4E060CC
:1009800008435060704701460020834A506820F4B5
:10099000605040EAC1005060704729B17E4A527AE7
:1009A00002437D4B5A7204E07B4A527A82437A4B6F
:1009B0005A7270477B49D831086070470146002061
:1009C000754A506820F44040084350607047002149
:1009D000714A20321170704A82F82010012802D02A
:1009E00004280AD104E001216B4A2032117005E08D
:1009F0000521694A2032117000E000BF00BF704736
:100A00006949086070476449096A0143624A116292
:100A10007047654944390860704730B500210022AD
:100A2000002400235C4D6D6805F00C0121B1042900
:100A300005D0082923D105E05C4D056022E05B4D1F
:100A400005601FE0544D6D6805F47012524D6D68DD
:100A500005F48034022505EB92421CB9544D5543F0
:100A600005600BE04C4D6D6805F400351DB1504D2F
:100A70005543056002E04D4D5543056002E04B4D86
:100A8000056000BF00BF444D6D6805F0F001090925
:100A9000484D6B5C0568DD4045603F4D6D6805F471
:100AA000E061090A434D6B5C4568DD4085603A4D65
:100AB0006D6805F46051C90A3E4D6B5C4568DD40C8
:100AC000C560354D6D6805F44041890B3A4D6B5C4E
:100AD000C568B5FBF3F5056130BD29B12E4A5269F1
:100AE00002432D4B5A6104E02B4A526982432A4B40
:100AF0005A61704729B1284A92690243264B9A618C
:100B000004E0254A92698243234B9A61704729B1D8
:100B1000214AD2690243204BDA6104E01E4AD269BD
:100B200082431D4BDA61704729B11B4AD2680243E8
:100B3000194BDA6004E0184AD2688243164BDA6037
:100B4000704729B1144A12690243134B1A6104E039
:100B5000114A12698243104B1A6170471249403999
:100B6000086070470F49C86470470B49C8717047E7
:100B70000948406A40F08070074948627047014662
:100B80000020054A92680A400AB1012000E00020D6
:100B90007047014988727047001002400000FFF85A
:100BA000FFFFF6FE000042428004424200127A003B
:100BB00000093D00140000202400002010B5044668
:100BC000FB48844209D101218803FFF7ADFF0021D2
:100BD0004FF48040FFF7A8FF32E0F648844209D185
:100BE00001214804FFF7ADFF00214FF40030FFF76B
:100BF000A8FF25E0F048844209D101218804FFF7CD
:100C0000A0FF00214FF48020FFF79BFF18E0EB4886
:100C1000844209D10121C804FFF793FF00214FF45A
:100C20000020FFF78EFF0BE0E548844208D1012148
:100C30000805FFF786FF00214FF48010FFF781FFC2
:100C400010BD2DE9F04786B005460E460024A246A9
:100C500000BFA1460027B08900B100BF2F462C8AF3
:100C60004CF6FF700440F08804432C82AC894EF6A9
:100C7000F3100440B0883189084371890843044364
:100C8000AC81AC8A4FF6FF400440B0890443AC828B
:100C900001A8FFF7C2FEC648874202D1DDF810A0C6
:100CA00001E0DDF80CA0A88900F4004040B10AEB97
:100CB000CA0000EB0A1031684900B0FBF1F807E008
:100CC0000AEBCA0000EB0A1031688900B0FBF1F8AA
:100CD0006420B8FBF0F004012009642101FB1089B5
:100CE000A88900F4004040B1322000EBC900B0FBFD
:100CF000F1F000F00700044308E0322000EB091097
:100D00006421B0FBF1F000F00F0004432C8106B029
:100D1000BDE8F0874FF41651016000218180C18049
:100D200001810C21418100218181704710B502466B
:100D30000020108A4FF2FF0318400B884C88234391
:100D40008C882343CC8823431843108210BD002194
:100D5000018041808180C180704721B1828942F445
:100D60000052828104E082894DF6FF731A4082812D
:100D70007047F0B50346002400260025002040F609
:100D80006A17B94200D100BF1846C1F3421401F0FE
:100D90001F06012707FA06F5012C01D10C3004E0EB
:100DA000022C01D1103000E014301AB107682F4333
:100DB000076002E00768AF430760F0BD1AB1838A9D
:100DC0000B43838202E0838A8B4383827047028ACB
:100DD0004FF6F0731A400282028A0A430282704779
:100DE00082894FF2FF731A40828182890A4382818D
:100DF000704721B1828942F00202828104E0828937
:100E00004FF6FD731A4082817047028A4FF6DF73F6
:100E10001A400282028A0A430282704721B1028A82
:100E200042F48042028204E0028A4BF6FF731A40C9
:100E300002827047C1F308028280704701468888A9
:100E4000C0F308007047818941F00101818170473A
:100E5000028BD2B20283028B42EA012202837047E4
:100E6000028B02F47F420283028B0A4302837047A3
:100E700021B1828A42F02002828204E0828A4FF607
:100E8000DF731A408282704721B1828A42F01002D9
:100E9000828204E0828A4FF6EF731A4082827047A2
:100EA00021B1828A42F00802828204E0828A4FF6EF
:100EB000F7731A408282704721B1828942F400425E
:100EC000828103E08289C2F30E028281704721B1E0
:100ED000828A42F40062828204E0828A4FF2FF73C7
:100EE0001A4082827047828A4FF6FB731A408282D0
:100EF000828A0A438282704721B1828A42F00202CA
:100F0000828204E0828A4FF6FD731A408282704723
:100F100002460020B1F5007F00D100BF13880B40CE
:100F20000BB1012000E00020704701F40072B2F51F
:100F3000007F00D100BFCA430280704770B50246EF
:100F4000002400230025002040F66A16B14200D19B
:100F500000BFC1F3421501F01F03012606FA03F397
:100F6000012D02D19689334006E0022D02D1168A66
:100F7000334001E0968A33400C12012606FA04F44D
:100F80001688344013B10CB1012000E0002070BD80
:100F900010B50022002340F66A14A14200D100BF20
:100FA0000A1201249440A3B2DC43048010BD000067
:100FB000003801400044004000480040004C004020
:100FC0000050004010B50121C802FFF7BAFD002112
:100FD0004FF40060FFF7B5FD10BD0021194A1268FB
:100FE00022F4C0710143174A1160704708B500210F
:100FF00000911449096821F07F01009100F07F0100
:10100000009A114300910F4A0099116008BD012018
:101010000D490860704700F07F010A4A121F1160F5
:10102000704740F08001074A121F11607047054861
:10103000001D0068C0B2704700200249091D086009
:1010400070470000042C0040A4800542FFF747F9D8
:101050004FF44070FFF7C4F901F08FFD01F099FDE6
:1010600000F035FF00BFFEE7704700F10801416066
:101070004FF0FF31816000F10801C1600161002182
:101080000160704700210161704742684A609368BF
:101090008B60936859609160086103685B1C036012
:1010A000704710B502460B685C1C0CB9106907E06C
:1010B00002F1080000E04068446824689C42FAD9C4
:1010C00044684C604C68A160886041600A611468A3
:1010D000641C146010BD01460A69D1E901309860B2
:1010E000D1E9010358605068884201D18868506096
:1010F000002008611068401E1060106870470000F2
:101100008F480068401C08B9012000E0002050B959
:1011100000BF1F2080F31188BFF34F8FBFF36F8F85
:1011200000BF00BFFEE700BF1F2080F31188BFF3A0
:101130004F8FBFF36F8F00BF00BFFEE7001F4FF060
:1011400080730360001F21F001030360001F7D4BCB
:10115000036014380260203870477B484FF0E0216C
:1011600048610720086170471CB578480146097836
:101170000191FF21024611700146097800919DF806
:10118000001001F01F01724A11700721714A1160AD
:1011900009E070490968491E6E4A11609DF8001007
:1011A0004906090E00919DF8001001F08001802988
:1011B000EFD0684909680902664A1160114609883A
:1011C00001F4E0611160614A0199117062480068A0
:1011D00040F47F00604908600846006840F07F40A6
:1011E0000860FFF7BAFF002055490860FEF7BCFF12
:1011F00000201CBD52480068B0F57A7F01D1012063
:1012000000E0002050B900BF1F2080F31188BFF319
:101210004F8FBFF36F8F00BF00BFFEE7704700BF67
:101220001F2080F31188BFF34F8FBFF36F8F00BF74
:1012300043480068401C424908600846006801288D
:1012400013D145481C380068C0B208B9012000E03D
:10125000002050B900BF1F2080F31188BFF34F8FCB
:10126000BFF36F8F00BF00BFFEE7704734480068D0
:1012700050B900BF1F2080F31188BFF34F8FBFF319
:101280006F8F00BF00BFFEE72D480068401E2C494D
:1012900008600846006820B9002080F3118800BF6C
:1012A00000BF704710B500BF1F2080F31188BFF347
:1012B0004F8FBFF36F8F00BF00F0C6F920B14FF022
:1012C000805025491C39086000BF002080F3118838
:1012D00000BF10BD70B5FEF77DFF0446102C16D37D
:1012E00004F1E02090F8F05319480078854201DBC2
:1012F000012000E0002050B900BF1F2080F31188BA
:10130000BFF34F8FBFF36F8F00BF00BFFEE71248E0
:101310001438006800F4E0600E490968884201D87A
:10132000012000E0002050B900BF1F2080F3118889
:10133000BFF34F8FBFF36F8F00BF00BFFEE770BDDD
:1013400028000020011100083F19010000E400E01E
:101350002C0000203000002020ED00E010B500241B
:1013600007E004EB8401F84A02EB8100FFF77DFE01
:10137000641C052CF5D3F548FFF777FEF448FFF71A
:1013800074FEF448FFF771FEF348FFF76EFEF34872
:10139000FFF76BFEED48F2490860ED48F14908603F
:1013A00010BD10B50446FFF73AFFEF480068401C37
:1013B000ED490860ED48006840B9EC480460084613
:1013C000006801280DD1FFF7C9FF0AE0E84800686E
:1013D00038B9E6480068C06AE16A884201D8E34843
:1013E0000460E4480068401CE249086094F82C104E
:1013F00001208840E04909680843DF490860E16A44
:1014000001EB8101D04A02EB8100211DFFF73DFE77
:10141000FFF72CFFD648006868B1D4480068C06A5E
:10142000E16A884207D24FF08050D4490860BFF388
:101430004F8FBFF36F8F10BD2DE9FF5F81460F46C1
:101440009246DDE90E6B109CAAF10100216B01EBC5
:10145000800828F0070808F0070008B9012000E01C
:10146000002050B900BF1F2080F31188BFF34F8FB9
:10147000BFF36F8F00BF00BFFEE7002507E0795D77
:1014800004F134004155785D00B902E06D1C102D67
:10149000F5D300BF002143200155052E00D30426BB
:1014A000E66266640020A064201DFFF7EBFD04F1F6
:1014B0001800FFF7E7FD2461C6F10500A061646232
:1014C0000020E06484F8500049464046039AFFF744
:1014D00035FE2060BBF1000F01D0CBF80040BDE825
:1014E000FF9F2DE9FF4F85B0804689461746DDE90D
:1014F00012ABB80001F00DFA064656B1542001F0C7
:1015000008FA04460CB1266304E0304601F095FA6F
:1015100000E000247CB10020CDE900ABCDE9024021
:101520003A4649464046089BFFF786FF2046FFF7AC
:1015300038FF012501E04FF0FF35284609B0BDE82E
:10154000F08F87490968096809B9012100E0002185
:1015500021B14FF0FF318A4A116006E080490968E5
:10156000C968C868864A41681160704710B504466A
:10157000206B01F062FA204601F05FFA10BD70B5F1
:101580000546FFF74CFE15B97848006800E028468C
:101590000446201DFFF79FFD78B9E06A00EB80004C
:1015A000694951F8200040B994F82C100120884076
:1015B00071490968814370480160A06A18B104F15B
:1015C0001800FFF788FD6B480068401C69490860F7
:1015D00066480068844209D1211D5F48FFF755FD28
:1015E00068480068401C6749086009E05E48006878
:1015F000401E5D4908602046FFF7B8FFFFF7A1FFD6
:10160000FFF734FE5A480068E8B158480068844241
:1016100019D15D48006808B9012000E0002050B9E8
:1016200000BF1F2080F31188BFF34F8FBFF36F8F70
:1016300000BF00BFFEE74FF0805050490860BFF385
:101640004F8FBFF36F8F70BD2DE9F0414FF0000851
:101650004D480068002876D14C480068451C4B482E
:10166000056015BB3E480068006808B9012000E02D
:10167000002050B900BF1F2080F31188BFF34F8FA7
:10168000BFF36F8F00BF00BFFEE7354807683548DE
:10169000006833490860334807603D480068401CD3
:1016A0003B490860FFF74DFF00BF354800688542A1
:1016B0003CD300BF2A480068006808B9012000E058
:1016C000002020B14FF0FF302D4908602DE0244864
:1016D0000068C068C4686668B54202D228480660DF
:1016E00023E0201DFFF7F7FCA06A18B104F11800F1
:1016F000FFF7F1FC94F82C10012088401E4909687E
:1017000008431D490860E16A01EB81010E4A02EBC2
:101710008100211DFFF7B9FC1449E06A0968C96A14
:101720008842C7D34FF00108C4E700BF0F480068E4
:10173000C06A00EB8000044951F82000012801D95B
:101740004FF001082BE025E0B80000201C0100202C
:101750003001002044010020580100206C010020CD
:10176000380000203C00002044000020340000200D
:1017700050000020600000204C00002004ED00E03C
:1017800064000020400000206C0000204800002081
:101790005C000020FE480068401CFD490860FD48D0
:1017A000006808B14FF001084046BDE8F08170B50F
:1017B00000240026F848006850B900BF1F2080F3BD
:1017C0001188BFF34F8FBFF36F8F00BF00BFFEE7DD
:1017D000FFF725FDF0480068401EEF490860084605
:1017E000006800284FD1ED48006800284BD024E065
:1017F000EB48C068C46804F11800FFF76CFC201DBA
:10180000FFF769FC94F82C1001208840E54909682D
:101810000843E4490860E16A01EB8101E24A02EB16
:101820008100211DFFF731FCE049E06A0968C96ABF
:10183000884202D30120D7490860D948006808B916
:10184000012000E000200028D2D00CB1FFF779FE83
:10185000CF48056865B100BFFFF7F6FE10B1012063
:10186000CC4908606D1E002DF6D10020C8490860E3
:10187000C848006838B101263007CD490860BFF379
:101880004F8FBFF36F8FFFF7F1FC304670BD2DE92E
:10189000F04105460E46C7480768C4480068001D69
:1018A000FFF719FC50B9C148006890F82C100120CE
:1018B0008840BC4909688143BA480160681C38B94E
:1018C00036B1BA480168091DBB48FFF7DEFB1AE0D4
:1018D0007C19B64800684460BC4207D2B34801682E
:1018E000091DB6480068FFF7DCFB0CE0AF48016853
:1018F000091DB3480068FFF7D4FBB2480068844272
:1019000001D2B0480460BDE8F081A3480068401CE3
:10191000A149086070472DE9F04704460F464FF093
:10192000000954B900BF1F2080F31188BFF34F8F07
:10193000BFF36F8F00BF00BFFEE70FB1012000E0D3
:10194000002050B900BF1F2080F31188BFF34F8FD4
:10195000BFF36F8F00BF00BFFEE78F48006808B974
:10196000012000E0002050B900BF1F2080F3118843
:10197000BFF34F8FBFF36F8F00BF00BFFEE7FFF7CE
:10198000C4FF8C4806682068C5192068B04207D992
:101990002068A8420BD9B54209D94FF0010906E0E9
:1019A0002068A84201D8B54201D94FF0010925604D
:1019B000B9F1000F03D0A81B0021FFF768FFFFF764
:1019C000F6FE8046B8F1000F07D14FF080507849FD
:1019D0000860BFF34F8FBFF36F8FBDE8F08770B51E
:1019E00004460025D4B16C48006808B9012000E025
:1019F000002050B900BF1F2080F31188BFF34F8F24
:101A0000BFF36F8F00BF00BFFEE7FFF77EFF00212F
:101A10002046FFF73CFFFFF7CAFE05463DB94FF0F1
:101A2000805063490860BFF34F8FBFF36F8F70BD65
:101A300070B50446FFF7F3FB14B95C48006800E09A
:101A400020460646F56AFFF711FC284670BD2DE9D1
:101A5000F0410546FFF73EFC00BF1F21EFF3118068
:101A600081F31188BFF34F8FBFF36F8F00BF044620
:101A700015B94E48006800E028460746FE6A00BFD8
:101A800084F3118800BF3046BDE8F0812DE9F047AE
:101A900080460D464FF00009052D01D2012000E0DF
:101AA000002050B900BF1F2080F31188BFF34F8F73
:101AB000BFF36F8F00BF00BFFEE7052D00D30425E5
:101AC000FFF7ADFBB8F1000F02D13848006800E025
:101AD00040460446666CAE4256D0B5420BD93348F8
:101AE000006884420DD031480068C06AA84208D816
:101AF0004FF0010905E02D480068844201D14FF004
:101B00000109E76AE16A606C884200D1E5626564B8
:101B1000A06900F0004010B9C5F10500A06107EB15
:101B20008701214A02EB81016069884201D10120CD
:101B300000E00020E0B1201DFFF7CDFA30B9012010
:101B4000B8401849096881431648016094F82C1080
:101B50000120884013490968084312490860E16A76
:101B600001EB8101104A02EB8100211DFFF78DFA84
:101B7000B9F1000F07D04FF080500D490860BFF356
:101B80004F8FBFF36F8F00BFFFF770FBBDE8F0878B
:101B900054000020580000206C0000204400002069
:101BA000440100204C000020B80000203400002038
:101BB00004ED00E0480000206C0100203C00002003
:101BC0003800002064000020FD48006818B10120A2
:101BD000FC49086032E00020FA490860FA480068D1
:101BE000B0FA80F0C0F11F0101EB8100F74A52F812
:101BF000200008B1012000E0002050B900BF1F20E4
:101C000080F31188BFF34F8FBFF36F8F00BF00BF0A
:101C1000FEE701EB8102ED4B03EB82004268526864
:101C2000426000F108024368934202D14268526860
:101C300042604268D268E64B1A6000BF704770B5D8
:101C40000546FFF7ECFA15B9E148006800E02846C0
:101C50000446201DFFF73FFA78B9E06A00EB8000E8
:101C6000DA4951F8200040B994F82C10012088403E
:101C7000D54909688143D4480160A06A18B104F1CC
:101C80001800FFF728FA211DD248FFF7FEF9FFF7E9
:101C9000EDFAD148006828B1FFF7C1FAFFF751FC0F
:101CA000FFF7E4FACA480068844229D1CA480068AC
:101CB000D0B1C348006808B9012000E0002050B945
:101CC00000BF1F2080F31188BFF34F8FBFF36F8FCA
:101CD00000BF00BFFEE74FF08050C0490860BFF36F
:101CE0004F8FBFF36F8F0BE0BA480068BC4909689B
:101CF000884203D10020B649086001E0FFF764FF85
:101D000070BD10B502460020114652B900BF1F2316
:101D100083F31188BFF34F8FBFF36F8F00BF00BFF6
:101D2000FEE7AC4C4B69A34201D1012300E0002344
:101D300073B1AC4C8B6AA34201D1012300E00023B4
:101D400033B98B6A0BB9012300E0002303B10120F2
:101D500010BD70B505462C4655B900BF1F2080F355
:101D60001188BFF34F8FBFF36F8F00BF00BFFEE737
:101D700074B39748006884422AD0FFF750FA20468F
:101D8000FFF7BFFF10B3201DFFF7A5F994F82C1043
:101D9000012088408C49096808438B490860E16A42
:101DA00001EB8101894A02EB8100211DFFF76DF9EA
:101DB0008749E06A0968C96A884207D34FF08050B2
:101DC00086490860BFF34F8FBFF36F8FFFF74EFA5E
:101DD00070BD2DE9F04106460027344656B900BFD4
:101DE0001F2080F31188BFF34F8FBFF36F8F00BFA9
:101DF00000BFFEE7FFF76EFA00BF1F21EFF311806F
:101E000081F31188BFF34F8FBFF36F8F00BF05467B
:101E10002046FFF776FF20B369480068E0B96C49B7
:101E2000E06A0968C96A884200D30127201DFFF7CC
:101E300052F994F82C10012088406349096808433E
:101E400061490860E16A01EB8101604A02EB8100AF
:101E5000211DFFF71AF904E004F118016148FFF7AA
:101E600014F900BF85F3118800BF3846BDE8F08142
:101E700070B523E0FFF749FD5B48006808B9012011
:101E800000E000200546FFF792FCBDB9FFF7C7F957
:101E90005548C068C468201DFFF71DF95048006808
:101EA000401E4F49086051480068401E4F49086075
:101EB000FFF7DCF92046FFF759FB00BF4B480068ED
:101EC0000028D7D170BD00BFFFF7D2FFFCE71CB5DB
:101ED000474800210B468022CDE9001045A1474824
:101EE000FFF7FFFA0446012C15D100BF1F2080F335
:101EF0001188BFF34F8FBFF36F8F00BF4FF0FF30DC
:101F00003F49086001203449086000203D490860CD
:101F1000FFF72AF910E0601C08B1012000E0002062
:101F200050B900BF1F2080F31188BFF34F8FBFF35C
:101F30006F8F00BF00BFFEE71CBD10B500BF1F20A4
:101F400080F31188BFF34F8FBFF36F8F00BF002066
:101F500021490860FFF74EF910BD2A49086870470B
:101F600070B5FFF7B7F9002526480468204670BD14
:101F70001B4800687047014611B91548006800E029
:101F80000846024652B900BF1F2080F31188BFF3F4
:101F90004F8FBFF36F8F00BF00BFFEE702F1340029
:101FA000704770B504460D4674BB00BF1F2080F318
:101FB0001188BFF34F8FBFF36F8F00BF00BFFEE7E5
:101FC0006C000020580000204C000020B8000020C9
:101FD000340000206C0100205000002004ED00E0DF
:101FE000440000204401002058010020400000204F
:101FF0006800002049444C4500000000C71E00084E
:102000006400002048000020FFE7F748016818310D
:102010002046FFF746F801212846FFF738FC70BD3F
:1020200070B504460D46164654B900BF1F2080F314
:102030001188BFF34F8FBFF36F8F00BF00BFFEE764
:10204000EA48006808B1012000E0002050B900BF54
:102050001F2080F31188BFF34F8FBFF36F8F00BF36
:1020600000BFFEE745F00040DF4909688861DE48AF
:10207000016818312046FFF708F801213046FFF7C4
:1020800006FC70BD70B50646F068C46854B900BF60
:102090001F2080F31188BFF34F8FBFF36F8F00BFF6
:1020A00000BFFEE704F11800FFF715F8CF480068FD
:1020B000A8B9201DFFF70FF894F82C1001208840D4
:1020C000CB4909680843CA490860E16A01EB81010C
:1020D000C84A02EB8100211DFEF7D7FF04E004F19E
:1020E0001801C548FEF7D1FFBF49E06A0968C96A0F
:1020F000884204D901250120C049086000E000257C
:10210000284670BD2DE9F04105460F46B7480068E6
:1021100008B1012000E0002050B900BF1F2080F36B
:102120001188BFF34F8FBFF36F8F00BF00BFFEE773
:1021300047F000402860EC6854B900BF1F2080F3CE
:102140001188BFF34F8FBFF36F8F00BF00BFFEE753
:102150002846FEF7C0FF201DFEF7BDFF94F82C10A7
:1021600001208840A24909680843A1490860E16A42
:1021700001EB81019F4A02EB8100211DFEF785FFE3
:102180009949E06A0968C96A884204D90126012090
:102190009A49086000E000263046BDE8F08150B959
:1021A00000BF1F2181F31188BFF34F8FBFF36F8FE3
:1021B00000BF00BFFEE792490968016091490968C4
:1021C0004160704770B504460D4654B900BF1F20EA
:1021D00080F31188BFF34F8FBFF36F8F00BF00BF35
:1021E000FEE755B900BF1F2080F31188BFF34F8F62
:1021F000BFF36F8F00BF00BFFEE7FFF710F8814805
:1022000003682868401C08B9002619E07C4920684A
:102210000968884204D06068984201D801260FE01E
:102220006068181A2968884209D228686168591AB2
:10223000401A28602046FFF7B2FF002600E0012682
:10224000FFF714F8304670BD01206C4908607047F4
:1022500065490868704770B505462C46002D4BD07F
:102260006149E06A0968C96A884245D2A06900F0FC
:10227000004028B95C480068C06AC0F10500A06150
:10228000E16A01EB81015B4A02EB810160698842EE
:1022900001D1012000E0002050B3201DFEF71BFFFC
:1022A00078B9E06A00EB8000524951F8200040B94B
:1022B00094F82C10012088404D49096881434C480E
:1022C000016049480068C06AE06294F82C1001205F
:1022D000884047490968084345490860E16A01EBBD
:1022E0008101444A02EB8100211DFEF7CEFE03E08E
:1022F0003D480068C06AE06270BD70B505462C4676
:102300000026002D55D038480068844201D10120B4
:1023100000E0002050B900BF1F2080F31188BFF3F8
:102320004F8FBFF36F8F00BF00BFFEE7A06C50B9A7
:1023300000BF1F2080F31188BFF34F8FBFF36F8F53
:1023400000BF00BFFEE7A06C401EA064616CE06AA5
:1023500088422ED0A06C60BB201DFEF7BCFE78B971
:10236000E06A00EB8000234951F8200040B994F85E
:102370002C10012088401E49096881431C480160D7
:10238000606CE062E06AC0F10500A06194F82C1076
:102390000120884016490968084315490860E16A28
:1023A00001EB8101134A02EB8100211DFEF76DFE56
:1023B0000126304670BD0C49096888690A490968D8
:1023C000C96AC1F10501084A12689161704706485F
:1023D000006830B10449096801F14800896C491C62
:1023E0000160014800687047340000206C00002044
:1023F0004C000020B80000204401002058000020BC
:102400005C0000204800002070B506460D46FEF72F
:1024100006FFFB480068C06C88B90120F8490968CC
:1024200081F850005DB101212846FFF730FA4FF0E6
:102430008050F4490860BFF34F8FBFF36F8FFEF7F2
:1024400015FFFEF7ECFEEE480068C46C4CB126B1F7
:102450000020EB490968C86403E0601EE849096888
:10246000C8640020E649096881F85000FEF7FEFEC6
:10247000204670BD2DE9F0410746884614461D46AA
:10248000FEF7CDFEDE48006890F85000022818D014
:10249000DB49096801F14C00C96CB94301600120B6
:1024A000D749096881F850005DB101212846FFF73E
:1024B000EEF94FF08050D3490860BFF34F8FBFF360
:1024C0006F8FFEF7D3FEFEF7AAFE1CB1CC48006862
:1024D000C06C2060CA48006890F85000012801D103
:1024E000002608E0C649096801F14C00C96C21EAE0
:1024F0000801016001260020C149096881F85000E7
:10250000FEF7B4FE3046BDE8F0812DE9F0470646FF
:102510000D46174698464FF0010A56B900BF1F20D6
:1025200080F31188BFF34F8FBFF36F8F00BF00BFE1
:10253000FEE73446FEF773FEB8F1000F02D0E06C00
:10254000C8F8000094F85090022084F85000052F3D
:1025500017D2DFE807F01503070B0D00E06C2843E6
:10256000E0640EE0E06C401CE0640AE0E56408E032
:10257000B9F1020F01D0E56401E04FF0000A00E07C
:1025800000BF00BFB9F1010F33D1201DFEF7A3FD3D
:1025900094F82C10012088409B49096808439A4907
:1025A0000860E16A01EB8101984A02EB8100211D7C
:1025B000FEF76BFDA06A08B9012000E0002050B9C9
:1025C00000BF1F2080F31188BFF34F8FBFF36F8FC1
:1025D00000BF00BFFEE78A49E06A0968C96A88420D
:1025E00007D94FF0805087490860BFF34F8FBFF382
:1025F0006F8FFEF73BFE5046BDE8F0872DE9F84FA0
:1026000007460E4690469946DDF828B00120009016
:1026100057B900BF1F2080F31188BFF34F8FBFF35E
:102620006F8F00BF00BFFEE7FEF754FE3C4600BFC1
:102630001F21EFF3118081F31188BFF34F8FBFF398
:102640006F8F00BF0546B9F1000F02D0E06CC9F8EA
:10265000000094F850A0022084F85000B8F1050F53
:1026600017D2DFE808F01503070B0D00E06C3043CC
:10267000E0640EE0E06C401CE0640AE0E66408E020
:10268000BAF1020F01D0E66401E00020009000E002
:1026900000BF00BFBAF1010F3ED1A06A08B9012006
:1026A00000E0002050B900BF1F2080F31188BFF365
:1026B0004F8FBFF36F8F00BF00BFFEE75448006825
:1026C000A8B9201DFEF707FD94F82C1001208840C2
:1026D0004D49096808434C490860E16A01EB8101F2
:1026E0004A4A02EB8100211DFEF7CFFC04E004F111
:1026F00018014848FEF7C9FC4149E06A0968C96AFF
:10270000884209D9BBF1000F03D00120CBF80000AB
:1027100002E001204049086000BF85F3118800BF36
:102720000098BDE8F88F2DE9F04105460F4655B9F0
:1027300000BF1F2080F31188BFF34F8FBFF36F8F4F
:1027400000BF00BFFEE7FEF7C5FD2C4600BF1F21FE
:10275000EFF3118081F31188BFF34F8FBFF36F8FB9
:1027600000BF064694F85080022084F85000E06CC8
:10277000401CE064B8F1010F3BD1A06A08B9012008
:1027800000E0002050B900BF1F2080F31188BFF384
:102790004F8FBFF36F8F00BF00BFFEE71C4800687C
:1027A000A8B9201DFEF797FC94F82C100120884052
:1027B00015490968084314490860E16A01EB810181
:1027C000124A02EB8100211DFEF75FFC04E004F1D8
:1027D00018011048FEF759FC0949E06A0968C96AFE
:1027E000884206D917B10120386002E001200A4969
:1027F000086000BF86F3118800BFBDE8F0810000CB
:102800003400002004ED00E04C000020B80000205F
:102810006C000020440100205800002070B50546DF
:1028200015B90A48006800E028460646FEF7F7FC9E
:1028300096F85000022804D1002086F850000124A8
:1028400000E00024FEF712FD204670BD3400002099
:1028500010B501469F4800E0006803688B42FBD337
:102860000246436813448B4204D143684C682344B6
:10287000436001460A464B6813440468A34211D1E1
:10288000954C03682468A34208D04B6804686468C8
:1028900023444B6003681B680B6005E08E4B1B688C
:1028A0000B6001E003680B60884200D0016010BD3E
:1028B00030B54FF48843894800F007042CB1C01D9F
:1028C00020F00700854C041B1B1B0246814C226034
:1028D0000024804D6C60D018083820F007007E4C32
:1028E000206000247C4D2D686C607B4D2D682C6031
:1028F0001146441A4C60784C24680C60784D4C6842
:102900002C60784D4C682C604FF00044764D2C6064
:1029100030BD2DE9F04104464FF00008FEF7F5FF09
:102920006D48006808B9FFF7C3FF6F480068204092
:1029300000286BD1D4B1083404F00700B0B104F022
:102940000700C0F10800044404F0070008B90120A2
:1029500000E0002050B900BF1F2080F31188BFF3B2
:102960004F8FBFF36F8F00BF00BFFEE7002C4DD02D
:102970005C480068844249D8564E3046056801E0FC
:102980002E462D686868A04202D228680028F7D138
:1029900051480068854239D0306800F1080828683D
:1029A00030606868001B102819D92F1907F007003C
:1029B00008B9012000E0002050B900BF1F2080F3BB
:1029C0001188BFF34F8FBFF36F8F00BF00BFFEE7CB
:1029D0006868001B78606C603846FFF739FF414932
:1029E00068680968081A3F490860084600683C4959
:1029F0000968884203D23B480068394908603A496F
:102A0000686809680843686000202860FEF7CFFE08
:102A100008F0070008B9012000E0002050B900BF0D
:102A20001F2080F31188BFF34F8FBFF36F8F00BF5C
:102A300000BFFEE74046BDE8F08170B5064635466A
:102A4000002E3FD0083D2C462749606809680840A1
:102A500008B1012000E0002050B900BF1F2080F322
:102A60001188BFF34F8FBFF36F8F00BF00BFFEE72A
:102A7000206808B9012000E0002050B900BF1F20E5
:102A800080F31188BFF34F8FBFF36F8F00BF00BF7C
:102A9000FEE7154960680968084098B1206888B960
:102AA00011496068096888436060FEF72EFF0D4990
:102AB0006068096808440B4908602046FFF7C8FEB3
:102AC000FEF775FE70BD074800687047044800684F
:102AD00070477047700000207800002080010020BF
:102AE000800000207C0000208400002008B5012127
:102AF0004020FDF7FFFF4FF48070ADF80000032089
:102B00008DF8020010208DF8030069460B48FDF790
:102B100035FD08BD08B501211020FDF7EBFF4FF48E
:102B20008040ADF8000003208DF8020010208DF8E1
:102B3000030069460248FDF721FD08BD0018014069
:102B40000010014010B54FF480411848FDF7C3FD57
:102B500010BD10B54FF480411448FDF7BEFD10BD07
:102B600010B54FF480411148FDF7A8FD10B1FFF7F3
:102B7000F0FF01E0FFF7E6FF10BD10B5FFF7CAFF59
:102B800010BD05E0FFF7ECFF4FF47A70FEF727FF6A
:102B9000F8E71CB50020022103462822CDE90010E9
:102BA00003A1AFF22100FEF79CFC1CBD0010014008
:102BB0006C65645F7461736B0000000070B504465F
:102BC0000D46012C35D0042C33D0082C31D0102CDC
:102BD0002FD0202C2DD0402C2BD0802C29D0B4F5F8
:102BE000807F26D0B4F5007F23D0B4F5806F20D04D
:102BF000B4F5006F1DD0B4F5805F1AD0B4F5005F56
:102C000017D0B4F5804F14D0B4F5004F11D0B4F5FF
:102C1000803F0ED0B4F5003F0BD0B4F5802F08D024
:102C2000B4F5002F05D0B4F5801F02D0B4F5001F15
:102C300004D129462046FDF75DFF43E0012C3DD03D
:102C4000022C3BD0042C39D0082C37D0102C35D096
:102C5000202C33D0B4F5006F30D0B4F5804F2DD098
:102C6000B4F5004F2AD0B4F5003F27D0B4F5802F3B
:102C700024D0B4F5002F21D0B4F5801F1ED0B4F5B8
:102C8000001F1BD0B4F5800F18D0B4F5000F15D07D
:102C9000B4F1007F12D0B4F1006F0FD0B4F1805FB7
:102CA0000CD0B4F1005F09D0B4F1804F06D0402CB5
:102CB00004D0802C02D0B4F5807F03D12946204671
:102CC000FDF725FF70BDF8B506460C461546ADF874
:102CD000004003208DF802008DF80350694630460D
:102CE000FDF74CFCF8BD70B504460D46164632465D
:102CF00029462046FFF7E7FF70BD70B504460D4634
:102D00001646324629462046FFF7DDFF70BD00001B
:102D100070B504460D4600BF80212046FEF7F8F846
:102D20000028F9D029462046FEF784F870BD10B57A
:102D30000146002208680089C0F308000B689B88E0
:102D4000C3F30803984201D1002010BD19E00868C0
:102D500000680B681B89C3F30803C05C4B685B68A1
:102D60004C686488185548684088401C4B685880F7
:102D700008680089C0F30800401C0B689860501C6C
:102D800082B208680089C0F308000B689B88C3F30F
:102D900008039842DBD11046D7E7014609B9FE483F
:102DA0007047012901D1FD48FAE7022901D1FC4809
:102DB000F6E7032901D1FB48F2E7042901D1FA48DB
:102DC000EEE70020ECE770B505462846FFF7E5FF83
:102DD000044604B970BD2046FFF7A9FF00BFF9E71C
:102DE00008B525208DF8000001208DF80100002095
:102DF0008DF8020001208DF803006846FDF7F5FA12
:102E000026208DF8000001208DF8010000208DF8AB
:102E1000020001208DF803006846FDF7E6FA27203E
:102E20008DF8000001208DF8010000208DF80200CF
:102E300001208DF803006846FDF7D7FA34208DF89D
:102E4000000001208DF8010000208DF80200012013
:102E50008DF803006846FDF7C8FA35208DF80000AC
:102E600001208DF8010000208DF8020001208DF86E
:102E700003006846FDF7B9FA08BD1FB5012104201B
:102E8000FFF79CFE01218803FFF798FE18224FF4FC
:102E90000071C648FFF727FF04221102C348FFF75D
:102EA0002CFF40F22551C248FEF73FF84FF4E130C5
:102EB00000900020ADF80400ADF80600ADF8080061
:102EC0000C20ADF80A000020ADF80C006946B848A7
:102ED000FDF7B7FE012240F22551B548FDF749FF45
:102EE0000121B348FDF739FF4021B148FEF71DF835
:102EF00001210420FFF762FE01214804FFF75EFE76
:102F000018220421A948FFF7EEFE04220821A74851
:102F1000FFF7F3FE40F22551A648FEF706F84FF4FE
:102F2000E13000900020ADF80400ADF80600ADF8E7
:102F300008000C20ADF80A000020ADF80C0069462E
:102F40009C48FDF77EFE012240F225519948FDF78D
:102F500010FF01219748FDF700FF40219548FDF73C
:102F6000E4FF01210820FFF729FE01218804FFF773
:102F700025FE18224FF480618F48FFF7B4FE04222B
:102F800051028D48FFF7B9FE40F225518B48FDF7FD
:102F9000CCFF4FF4E13000900020ADF80400ADF814
:102FA0000600ADF808000C20ADF80A000020ADF8CE
:102FB0000C0069468148FDF744FE012240F225518C
:102FC0007E48FDF7D6FE01217C48FDF7C6FE402174
:102FD0007A48FDF7AAFF01211020FFF7EFFD01213C
:102FE000C804FFF7EBFD18224FF480617448FFF727
:102FF0007AFE042251027248FFF77FFE40F225510B
:103000007048FDF792FF4FF4E13000900020ADF8DA
:103010000400ADF80600ADF808000C20ADF80A0079
:103020000020ADF80C0069466648FDF70AFE012253
:1030300040F225516348FDF79CFE01216148FDF7F0
:103040008CFE40215F48FDF770FF01211020FFF743
:10305000B5FD01210805FFF7B1FD01212020FFF793
:10306000ADFD18224FF480515548FFF73CFE042275
:1030700011465548FFF741FE40F225515348FDF7F0
:1030800054FF4FF4E13000900020ADF80400ADF89B
:103090000600ADF808000C20ADF80A000020ADF8DD
:1030A0000C0069464948FDF7CCFD012240F225514C
:1030B0004648FDF75EFE01214448FDF74EFE4021E3
:1030C0004248FDF732FF1FBD10B541484149086035
:1030D0004FF4007040490880002048803F48486015
:1030E0000846406828B94FF4007000F00BFA3A49DE
:1030F0004860394948684FF4007100F0D6F9354806
:10310000254908603448486000208860C860344819
:10311000344908604FF4007033490880002048802B
:10312000324848600846406828B94FF4007000F003
:10313000E9F92D4948602C4948684FF4007100F0C6
:10314000B4F928481549086027484860002088607D
:10315000C8602748274908604FF400702649088056
:1031600000204880254848600846406828B94FF448
:10317000007000F0C7F9204948601F4948684FF4C3
:10318000007100F092F91B48054908601A48486030
:1031900000208860C86033E090490020B04D0020D6
:1031A000D0510020F0550020105A002000080140A6
:1031B0000038014000440040000C0140004800403D
:1031C00000100140004C004000140140005000403D
:1031D0008045002080490020880000208047002092
:1031E000A0490020A04D002090000020A04B00200E
:1031F000C04D0020C051002098000020C04F00208A
:103200007748784908604FF40070774908800020BB
:103210004880764848600846406828B94FF40070F6
:1032200000F070F9704948606F4948684FF40071C8
:1032300000F03BF96B486E4908606B48486000201D
:103240008860C8606B486C4908604FF400706B4937
:103250000880002048806A4848600846406828B9CD
:103260004FF4007000F04EF96449486063494868C3
:103270004FF4007100F019F95F48624908605F4837
:10328000486000208860C86010BD10B5FFF71CFFC3
:10329000FFF7F3FDFFF7A4FD10BD014609B95A4839
:1032A0007047012901D15948FAE7022901D158484C
:1032B000F6E7032901D15748F2E7042901D156481E
:1032C000EEE70020ECE770B505460E462846FFF70E
:1032D000E4FF044604B970BD31462046FFF718FDEF
:1032E00000BFF8E72DE9F04180460D461646002460
:1032F0004046FFF7D2FF07460FB9BDE8F081002432
:1033000005E0295D3846FFF703FD601C84B2B44236
:10331000F7DB00BFF1E770B504460D4616463246AE
:1033200029462046FFF7DEFF70BD2DE9F041064635
:103330000C4600273046FFF7B0FF05460DB9BDE843
:10334000F08140F225512846FDF7F8FDE0B128460E
:10335000FDF774FDC7B220688088C0F30800401CE8
:1033600021680989C1F30801884206D020680068F5
:1033700021688988C1F30801475420688088C0F318
:103380000800401C2168486040F227712846FDF77C
:10339000D5FD28B1002240F227712846FDF7E9FC4F
:1033A00000BFCCE710B51D490020FFF7BEFF10BDE0
:1033B00010B51B490120FFF7B8FF10BD10B5194922
:1033C0000220FFF7B2FF10BD10B509490320FFF737
:1033D000ACFF10BD10B50B490420FFF7A6FF10BDD0
:1033E000E0510020E0550020A0000020E053002024
:1033F000F055002000560020005A0020A8000020B0
:1034000000580020105A00200038014000440040BD
:1034100000480040004C004000500040904900200F
:10342000B04D0020D051002008B500208DF80000DC
:1034300005208DF8010000208DF8020001208DF894
:1034400003006846FCF7D1FF08BD70B505460C4681
:103450007E20FDF724FA08B1FDF78AFB0121C8029E
:10346000FFF7ACFB4FF4C070FDF7B7FD2046FDF74A
:10347000BDFD2846FDF7D5FDFDF7DEFDFDF7C7FDD7
:10348000FFF7D2FF70BD10B5034820B1FDF7D4FDA2
:103490007F20FDF7C0FD10BD2F100008D2B201E063
:1034A00000F8012B491EFBD270470022F6E710B549
:1034B00013460A4604461946FFF7F0FF204610BDA2
:1034C000064C074D06E0E06840F0010394E8070071
:1034D00098471034AC42F6D3FCF72EFE7035000846
:1034E0009035000802E008C8121F08C1002AFAD16E
:1034F00070477047002001E001C1121F002AFBD174
:1035000070470000F0B50B30154D20F00701002486
:10351000144A0FE003688B420BD38B4205D95E1A25
:1035200043184768C3E9006700E04368136002C0BE
:1035300004E0021D10680028ECD12046002802D1CA
:10354000286808B10020F0BD064A07481060074A05
:10355000121A22F00702C0E9002401202860D7E7F0
:10356000B4000020B0000020245A0020205C00207D
:103570009035000800000020B8000000E434000886
:1035800048360008B8000020685F0000F4340008E6
:1035900000A24A0400000000000000000102030431
:1035A00006070809000000000102030401020304E9
:1035B0000607080902040608AAAAAAAA0000000031
:1035C00000000000000000000000000000000000FB
:1035D00000000000000000000000000000000000EB
:1035E00000000000000000000000000000000000DB
:1035F00000000000000000000000000000000000CB
:1036000000000000000000000000000000000000BA
:1036100000000000000000000000000000000000AA
:10362000000000000000000000000000000000009A
:10363000000000000000000000000000000000008A
:08364000000000000000000082
:0400000508000131BD
:00000001FF
